:0400000003EF13F007
:1010000000000800000007030F08000000000000B7
:1010100000000000000000000000000000000000D0
:1010200000000000000000000000000000000000C0
:1010300000000000000000000000000000000000B0
:1010400000000000000000000000000000000000A0
:1018000000000000000042EC12F020C011F020C0E7
:1018100012F0136A1BC00EF01CC00FF000D30B6E49
:10182000010E016E0B50000E28EC13F0CBD30B6EA3
:10183000000E016E0B50000E28EC13F0C3D30B6E9C
:10184000010E1D6E0B50BED32150B8EC13F0F0D139
:101850001E50B8EC13F0206EACD220C005F0215021
:10186000E7EC11F0AFD320C005F01E50E7EC11F00B
:10187000A0D21FC005F01E50E7EC11F01AD1000EE7
:101880001924D96E020E1A20D1D1000EC3EC13F028
:10189000CFD1010EC3EC13F0CBD123C020F092D3F3
:1018A00022C020F08FD321C020F08CD3000E192449
:1018B000D96E020E1A20DA6E20C0DFFF83D320C05B
:1018C00001F0000E77EC13F07DD320C001F0010E83
:1018D00077EC13F077D320C023F074D320C021F02D
:1018E00071D31EC020F065D220C011F021C020F0BD
:1018F00011C021F067D32150201664D32050211449
:101900000BD0215020125ED32050211005D0215041
:10191000201A58D320502118206E201E53D320C0E7
:1019200011F01104D8A408D00B6E010E016E0B50FB
:10193000000E28EC13F046D30B6E000E016E0B5018
:10194000000E28EC13F03ED320C011F01104D8A4EF
:1019500008D00B6E010E016E0B50000E28EC13F038
:1019600031D30B6E000E016E0B50000E28EC13F0FD
:1019700029D320C010F0205010245AD120C010F0DC
:101980001050B4D12150206208D00B6E010E016EB0
:101990000B50030E28EC13F007D00B6E000E016EF7
:1019A0000B50030E28EC13F02150205CD8B008D067
:1019B0000B6E010E016E0B50020E28EC13F007D0D7
:1019C0000B6E000E016E0B50020E28EC13F020502F
:1019D000215CD8B008D00B6E010E016E0B50010EC9
:1019E00028EC13F0EFD20B6E000E016E0B50010EBF
:1019F00028EC13F0E7D2ACEC13F011D0030E8BEC13
:101A000013F00B6E0B04D8A4DDD266D0030E8BEC62
:101A100013F00B6E0B04D8A44CD0ACEC13F001C047
:101A20001BF002C01CF045D0030E8BEC13F036D037
:101A3000030E8BEC13F00009D8A43BD0ACEC13F0F0
:101A4000EED7010E8BEC13F0DCD7010E8BEC13F00C
:101A50000B6E0B04D8A42DD0ACEC13F0E0D7020E23
:101A60008BEC13F0CED7020E8BEC13F00B6E0B0445
:101A7000D8A41FD0ACEC13F0D2D7000E8BEC13F02F
:101A8000C0D7000E8BEC13F00B6E0B04D8A411D052
:101A9000ACEC13F0C4D7000E8BEC13F00009B3D7F5
:101AA000000E8BEC13F00009D8A403D0ACEC13F0BB
:101AB000B6D7020E1B26000E1C2284D22350010D25
:101AC0000101000EF324D96E0101010EF420DA6E3B
:101AD0001BC0DFFF020E232619C01BF01AC01CF02A
:101AE00071D22350010D0101000EF324D96E0101C2
:101AF000010EF420DA6E1BC0DFFF020E2326ACECD1
:101B000013F08DD7020E235E2350010D0101000E4C
:101B1000F324D96E0101010EF420DA6EDF500B6E52
:101B20000B500E6E0F6A2350010D0101000EF324BD
:101B3000D96E0101010EF420DA6EDF500B6E0B50EE
:101B40000E240C6E000E0F200D6E0C501B260D5037
:101B5000B3D72350010D0101000EF324D96E01010A
:101B6000010EF420DA6E20C0DFFF2AD02350010DD1
:101B70000101000EF324D96E0101010EF420DA6E8A
:101B800021C0DFFF1DD02350010D0101000EF32401
:101B9000D96E0101010EF420DA6E19C0DFFF020ECA
:101BA000232610D22350010D0101000EF324D96E1B
:101BB0000101010EF420DA6E000EC3EC13F00FD019
:101BC000232A00D22350010D0101000EF324D96E07
:101BD0000101010EF420DA6E010EC3EC13F0DF6E8A
:101BE000EFD72350010D0101000EF324D96E01013E
:101BF000010EF420DA6E22C0DFFFE2D72350010D80
:101C00000101000EF324D96E0101010EF420DA6EF9
:101C10001EC0DFFF232ACDD023062350010D010172
:101C2000000EF324D96E0101010EF420DA6EDF50AC
:101C3000206EC8D123062350010D0101000EF324AC
:101C4000D96E0101010EF420DA6EDF50216EBAD197
:101C5000020E235E2350010D0101000EF324D96E04
:101C60000101010EF420DA6EDF500B6E0B50196E7D
:101C70001A6AA8D123062350010D0101000EF32496
:101C8000D96E0101010EF420DA6EDF50016E000EF4
:101C900077EC13F097D123062350010D0101000EBC
:101CA000F324D96E0101010EF420DA6EDF50016ECB
:101CB000010E77EC13F086D121501226000E13226C
:101CC000000E125C010E1358D8A008D00B6E010E46
:101CD000016E0B50040E28EC13F007D00B6E000EB3
:101CE000016E0B50040E28EC13F0215020266AD10F
:101CF0001E501226000E1322000E125C010E135805
:101D0000D8A008D00B6E010E016E0B50040E28EC0B
:101D100013F007D00B6E000E016E0B50040E28EC72
:101D200013F01E50202645D020C012F0136AFF0E7B
:101D30001226000E13222150125E000E135AFF0EBF
:101D4000125C000E1358D8B008D00B6E010E016E55
:101D50000B50040E28EC13F007D00B6E000E016E32
:101D60000B50040E28EC13F02150205E2BD120C024
:101D700012F0136AFF0E1226000E13221E50125E7E
:101D8000000E135AFF0E125C000E1358D8B008D084
:101D90000B6E010E016E0B50040E28EC13F007D0F1
:101DA0000B6E000E016E0B50040E28EC13F01E504B
:101DB000205E1B4A1C2A06D1010E2024126E136AD3
:101DC000000E1322000E125C010E1358D8A008D08A
:101DD0000B6E010E016E0B50040E28EC13F007D0B1
:101DE0000B6E000E016E0B50040E28EC13F0202A2F
:101DF000E9D02004116E1128D8A408D00B6E010E72
:101E0000016E0B50040E28EC13F007D00B6E000E81
:101E1000016E0B50040E28EC13F02006D3D0000EF8
:101E20001B24D96E020E1C20DA6EDF50010AD8B4D2
:101E3000F6D4030AD8B4FBD4010AD8B405D5070AEE
:101E4000D8B406D5010AD8B408D5030AD8B40BD53E
:101E5000010AD8B40ED50F0AD8B4F1D4180AD8B4F0
:101E60000ED5010AD8B411D5030AD8B412D5010A87
:101E7000D8B413D5070AD8B413D5010AD8B413D5EA
:101E8000030AD8B413D5010AD8B419D50F0AD8B4A7
:101E90001CD5010AD8B41FD5030AD8B41FD5010A2E
:101EA000D8B41FD5070AD8B41FD53C0AD8B423D557
:101EB000010AD8B423D5030AD8B423D5010AD8B46B
:101EC00023D5070AD8B426D5010AD8B426D5030AE3
:101ED000D8B425D5010AD8B437D50F0AD8B449D516
:101EE000010AD8B44BD5030AD8B44CD5010AD8B4EA
:101EF0000ED51B0AD8B4F0D5010AD8B47CD5030A94
:101F0000D8B47CD5010AD8B481D5070AD8B48CD509
:101F1000010AD8B48DD5030AD8B493D5010AD8B430
:101F200094D50F0AD8B49BD5010AD8B49CD5030A1E
:101F3000D8B4A3D5010AD8B4A4D5070AD8B4ABD570
:101F4000010AD8B4ADD5030AD8B4B8D5010AD8B4BB
:101F5000C8D57F0AD8B4D6D5010AD8B4FAD5030AB1
:101F6000D8B404D6010AD8B40ED6070AD8B41AD603
:101F7000010AD8B427D6030AD8B433D6010AD8B494
:101F80003DD60F0AD8B448D6010AD8B453D6030AAE
:101F9000D8B45ED6010AD8B46DD6070AD8B47BD6B9
:101FA0001C0AD8B489D6010AD8B4A2D6030AD8B478
:101FB000BBD6010AD8B4DBD6070AD8B4FDD6010ACD
:101FC000D8B417D71B4A1C2A1200E8CF02F056D10A
:101FD0000204D8A408D0899289908D90899A899812
:101FE0008996899412008D948D928B928B908B940C
:101FF000899C899E12000204D8A408D08982899005
:102000008D90899A89988996899412008D848D92F1
:102010008B928B908B94899C899E12000204D8A489
:1020200008D089808D80898A898889868984899267
:1020300012008D828B828B808B84898C898E8D940B
:1020400012000204D8A408D08988898689928990D0
:102050008D90899A899412008B84898C8D948D92AD
:102060008B928B90899E12000204D8A408D0898A92
:102070008D808982898689848990899812008B80D5
:102080008B828D84898C898E8D928B9412000204B0
:10209000D8A408D0898A8988898289868984899088
:1020A0008D9012008B808B848D84898C898E8D928B
:1020B0008B9212000204D8A408D08988898689826C
:1020C00089808D90899A899412008B84898C8D8463
:1020D0008D828B928B90899E12000204D8A408D026
:1020E000898A89888982898089848D90899612005D
:1020F0008B808B848D848D82898E8B92899C12003B
:102100000204D8A408D08D80898A89888982898030
:102110008984899612008B828B808B848D848D823A
:10212000898E899C12000204D8A408D089888986E7
:102130008984899289908D90899A12008B84898CE8
:10214000898E8D948D928B928B9012000204D8A46C
:1021500008D0898289808D80898A89888986898446
:1021600012008D848D828B828B808B84898C898EEA
:1021700012000204D8A408D089828980898A8988BB
:10218000898689848D9012008D848D828B808B84CA
:10219000898C898E8B9212000204D8A408D089827F
:1021A00089808D80898889868984899A12008D84A6
:1021B0008D828B828B84898C898E8B901200020495
:1021C000D8A408D0898289808D80898A8988899657
:1021D000899412008D848D828B828B808B84899C64
:1021E000899E12000204D8A408D089808D80898A33
:1021F000898489928998899612008D828B828B803E
:10220000898E8D948B94899C12000204D8A408D0E6
:1022100089828D80898A898889868990899412002B
:102220008D848B828B808B84898C8D92899E120009
:102230000204D8A408D0898289808D80898A898403
:102240008998899612008D848D828B828B80898EED
:102250008B94899C12000204D8A408D089828980BA
:102260008D808984899A8998899612008D848D82BF
:102270008B82898E8B908B94899C120001502D0A41
:10228000D8B4B9D61D0AD8B4C9D6010AD8B4D9D69B
:10229000030AD8B4E9D6010AD8B4F9D6070AD8B4E3
:1022A00009D7010AD8B419D7030AD8B429D7010A23
:1022B000D8B439D70F0AD8B449D7010AD8B459D7F6
:1022C000780AD8B469D7030AD8B479D7010AD8B440
:1022D00089D7070AD8B499D7010AD8B4A9D7030A6D
:1022E000D8B4B9D71E0AD8B473D6390AD8B454D7DB
:1022F000030AD8B464D7010AD8B474D7070AD8B48B
:1023000084D7010AD8B494D7030AD8B4A4D71E0A34
:10231000D8A412005DD6E8CF01F00138F00B016EB1
:1023200001380F0B016E20D0300E1200310E12005A
:10233000320E1200330E1200340E1200350E12004F
:10234000360E1200370E1200380E1200390E12002F
:10235000410E1200420E1200430E1200440E1200F3
:10236000450E1200460E12000150000AD8B4DCD708
:10237000010AD8B4DBD7030AD8B4DAD7010AD8B433
:10238000D9D7070AD8B4D8D7010AD8B4D7D7030AFF
:10239000D8B4D6D7010AD8B4D5D70F0AD8B4D4D771
:1023A000010AD8B4D3D7030AD8B4D2D7010AD8B413
:1023B000D1D7070AD8B4D0D7010AD8B4CFD7030AE7
:1023C000D8B4CED7010AD8B4CDD7000E1200E8CFCA
:1023D00007F04AD0056604D0040E096EB00E086EF0
:1023E0000504D8A404D0090E096E600E086E0550CD
:1023F000020AD8A404D0250E096E800E086E05507E
:10240000030AD8A404D0280E096EB10E086E055038
:10241000040AD8A404D04B0E096E000E086E08C042
:1024200001F009C002F08DEC12F0120005C073FF3C
:10243000120005508BEC11F00A6E0AC001F0010E7B
:10244000E5EC0FF0066E460E016E0650010EE5EC4F
:102450000FF0120005508BEC11F00A6E0AC001F06B
:10246000020EE5EC0FF012000750000AD8B4B2D704
:10247000010AD8B4DBD7020AD8B4DBD7070AD8A43C
:102480001200E8D7010E1B24016E000E1C20026E04
:102490000250080A0110D8A404D0016E000E1E6E6E
:1024A0000150020E1B24016E000E1C20026E025011
:1024B000080A0110D8A404D0016E000E1F6E01504E
:1024C000020E1B24016E000E1C20026E0104080E79
:1024D000D8B40218D8A404D0016E010E1F6E0150AA
:1024E000010E1B24016E000E1C20026E000E012442
:1024F000D96E020E0220DA6EDF501E6E020E1B2411
:10250000016E000E1C20026E000E0124D96E020E18
:102510000220DA6EDF501F6E12008C860BD0670E21
:1025200007D0190E05D0170E03D00C0E01D0CF0E18
:10253000756E2CD001C003F002C004F00450040AF0
:10254000D8B40DD00D0AD8B40DD02C0AD8B40FD001
:102550000D0AD8B411D0630AD8B413D0E8D7035009
:10256000B00AE5D70350600AD8B4D9D7E0D70350F2
:10257000800AD8B4D6D7DBD70350B10AD8B4D3D7A2
:10258000D6D70350000AD8B4D0D7D1D7000E766E74
:1025900072947096729C719C7298709A728A71880B
:1025A000718E12009EEC13F05FEC13F0146E2D0E82
:1025B000016E1450010EE5EC0FF0146E2D0E016E3D
:1025C0001450020EE5EC0FF046EC13F00DD0000EA7
:1025D0001B5C080E1C58D8A005D0000E1C6E000E07
:1025E0001B6E02D003EC0CF01D50D8B4F0D71D04C4
:1025F000D8A400EF00F0146E300E016E1450020EDD
:10260000E5EC0FF0FFD701EE00F011EE00F0EE6AFE
:10261000E550E150FCE1E250FAE100EE15F00F0E5A
:10262000EE6AE806FDE1060EF66E100EF76E000E7D
:10263000F86E02EE00F018EE00F00900F5CFEEFFA4
:10264000E550E150FAE1E250F8E10001D2EF12F07A
:10265000E8CF03F022C004F022C005F005D0026EDE
:10266000000E056E02500DD00350000AD8B4F7D703
:10267000010AD8B406D0030AD8B403D0010AD8A4FA
:10268000070A045005240124226E1200016E000E78
:102690001D6E0150016E000E206E0150016E000E85
:1026A000216E0150000E1C6E000E1B6E016E000E9E
:1026B000236E0150016E000E226E01501200000EBA
:1026C000926E000E946E000E966E000E0F010F01BA
:1026D0003B6F95969588959A958E959C000E896E80
:1026E000000E8B6E000E8C6E000E8D6E1200E8CF09
:1026F00006F001C002F0036A19C004F01AC005F028
:102700000650000AD8A4010A02500424196E03508E
:1027100005201A6E1200E8CF01F022C002F001502D
:10272000000AD8B409D0010AD8B406D0030AD8B434
:1027300003D0010AD8A4070A02501200D39ED388FE
:10274000D38AD38CD350FC0B0209D36ED298D29685
:10275000D294D3B41200FDD71EC003F0046A1F50F8
:102760000326000E042203C001F004C002F0120090
:10277000E8CF01F002D0745012000150020AD8B420
:10278000FAD7000E1200E8CF03F019C001F01AC00A
:0627900002F001501200EE
:020000040020DA
:08000000FFFFFFFFFFFFFFFF00
:020000040030CA
:0E000000FF08193CFFBD81FF0FC00FE00F404D
:00000001FF
