:0400000005EF13F005
:10100000000008000000070300540604310003003C
:1010100000000000000000000000000000000000D0
:1010200000000000000000000000000000000000C0
:1010300000000000000000000000000000000000B0
:1010400000000000000000000000000000000000A0
:101800000000000000003BEC12F01FC010F01FC0F1
:1018100011F0126A1AC00DF01BC00EF000D30A6E50
:10182000010E016E0A50000E4AEC13F0CBD30A6E83
:10183000000E016E0A50000E4AEC13F0C3D30A6E7C
:10184000010E1C6E0A50BED32050F7EC13F0F0D1FD
:101850001D50F7EC13F01F6EACD21FC005F02050E6
:10186000E7EC11F0AFD31FC005F01D50E7EC11F00D
:10187000A0D21EC005F01D50E7EC11F01AD1000EE9
:101880001824D96E020E1920D1D1000E02EC14F0EA
:10189000CFD1010E02EC14F0CBD122C01FF092D3B5
:1018A00021C01FF08FD320C01FF08CD3000E18244E
:1018B000D96E020E1920DA6E1FC0DFFF83D31FC05E
:1018C00001F0000EB6EC13F07DD31FC001F0010E45
:1018D000B6EC13F077D31FC022F074D31FC020F0F2
:1018E00071D31DC01FF065D21FC010F020C01FF0C3
:1018F00010C020F067D320501F1664D31F5020144F
:101900000BD020501F125ED31F50201005D0205046
:101910001F1A58D31F5020181F6E1F1E53D31FC0ED
:1019200010F01004D8A408D00A6E010E016E0A50FF
:10193000000E4AEC13F046D30A6E000E016E0A50F8
:10194000000E4AEC13F03ED31FC010F01004D8A4D0
:1019500008D00A6E010E016E0A50000E4AEC13F018
:1019600031D30A6E000E016E0A50000E4AEC13F0DD
:1019700029D31FC00FF01F500F245AD11FC00FF0E2
:101980000F50B4D120501F6208D00A6E010E016EB4
:101990000A50030E4AEC13F007D00A6E000E016ED7
:1019A0000A50030E4AEC13F020501F5CD8B008D048
:1019B0000A6E010E016E0A50020E4AEC13F007D0B7
:1019C0000A6E000E016E0A50020E4AEC13F01F5010
:1019D000205CD8B008D00A6E010E016E0A50010ECC
:1019E0004AEC13F0EFD20A6E000E016E0A50010E9F
:1019F0004AEC13F0E7D2EBEC13F011D0030ECAEC73
:101A000013F00A6E0A04D8A4DDD266D0030ECAEC25
:101A100013F00A6E0A04D8A44CD0EBEC13F001C00A
:101A20001AF002C01BF045D0030ECAEC13F036D0FA
:101A3000030ECAEC13F00009D8A43BD0EBEC13F072
:101A4000EED7010ECAEC13F0DCD7010ECAEC13F08E
:101A50000A6E0A04D8A42DD0EBEC13F0E0D7020EE6
:101A6000CAEC13F0CED7020ECAEC13F00A6E0A04C9
:101A7000D8A41FD0EBEC13F0D2D7000ECAEC13F0B1
:101A8000C0D7000ECAEC13F00A6E0A04D8A411D015
:101A9000EBEC13F0C4D7000ECAEC13F00009B3D777
:101AA000000ECAEC13F00009D8A403D0EBEC13F03D
:101AB000B6D7020E1A26000E1B2284D22250010D28
:101AC0000101000EF324D96E0101010EF420DA6E3B
:101AD0001AC0DFFF020E222618C01AF019C01BF030
:101AE00071D22250010D0101000EF324D96E0101C3
:101AF000010EF420DA6E1AC0DFFF020E2226EBEC94
:101B000013F08DD7020E225E2250010D0101000E4E
:101B1000F324D96E0101010EF420DA6EDF500A6E53
:101B20000A500D6E0E6A2250010D0101000EF324C1
:101B3000D96E0101010EF420DA6EDF500A6E0A50F0
:101B40000D240B6E000E0E200C6E0B501A260C503E
:101B5000B3D72250010D0101000EF324D96E01010B
:101B6000010EF420DA6E1FC0DFFF2AD02250010DD3
:101B70000101000EF324D96E0101010EF420DA6E8A
:101B800020C0DFFF1DD02250010D0101000EF32403
:101B9000D96E0101010EF420DA6E18C0DFFF020ECB
:101BA000222610D22250010D0101000EF324D96E1D
:101BB0000101010EF420DA6E000E02EC14F00FD0D9
:101BC000222A00D22250010D0101000EF324D96E09
:101BD0000101010EF420DA6E010E02EC14F0DF6E4A
:101BE000EFD72250010D0101000EF324D96E01013F
:101BF000010EF420DA6E21C0DFFFE2D72250010D82
:101C00000101000EF324D96E0101010EF420DA6EF9
:101C10001DC0DFFF222ACDD022062250010D010176
:101C2000000EF324D96E0101010EF420DA6EDF50AC
:101C30001F6EC8D122062250010D0101000EF324AF
:101C4000D96E0101010EF420DA6EDF50206EBAD198
:101C5000020E225E2250010D0101000EF324D96E06
:101C60000101010EF420DA6EDF500A6E0A50186E80
:101C7000196AA8D122062250010D0101000EF32499
:101C8000D96E0101010EF420DA6EDF50016E000EF4
:101C9000B6EC13F097D122062250010D0101000E7F
:101CA000F324D96E0101010EF420DA6EDF50016ECB
:101CB000010EB6EC13F086D120501126000E122230
:101CC000000E115C010E1258D8A008D00A6E010E49
:101CD000016E0A50040E4AEC13F007D00A6E000E93
:101CE000016E0A50040E4AEC13F020501F266AD1F0
:101CF0001D501126000E1222000E115C010E12580A
:101D0000D8A008D00A6E010E016E0A50040E4AECEB
:101D100013F007D00A6E000E016E0A50040E4AEC52
:101D200013F01D501F2645D01FC011F0126AFF0E80
:101D30001126000E12222050115E000E125AFF0EC4
:101D4000115C000E1258D8B008D00A6E010E016E58
:101D50000A50040E4AEC13F007D00A6E000E016E12
:101D60000A50040E4AEC13F020501F5E2BD11FC006
:101D700011F0126AFF0E1126000E12221D50115E84
:101D8000000E125AFF0E115C000E1258D8B008D087
:101D90000A6E010E016E0A50040E4AEC13F007D0D1
:101DA0000A6E000E016E0A50040E4AEC13F01D502C
:101DB0001F5E1A4A1B2A06D1010E1F24116E126AD9
:101DC000000E1222000E115C010E1258D8A008D08D
:101DD0000A6E010E016E0A50040E4AEC13F007D091
:101DE0000A6E000E016E0A50040E4AEC13F01F2A10
:101DF000E9D01F04106E1028D8A408D00A6E010E76
:101E0000016E0A50040E4AEC13F007D00A6E000E61
:101E1000016E0A50040E4AEC13F01F06D3D0000ED8
:101E20001A24D96E020E1B20DA6EDF50010AD8B4D4
:101E3000F6D4030AD8B4FBD4010AD8B405D5070AEE
:101E4000D8B406D5010AD8B408D5030AD8B40BD53E
:101E5000010AD8B40ED50F0AD8B4F1D4180AD8B4F0
:101E60000ED5010AD8B411D5030AD8B412D5010A87
:101E7000D8B413D5070AD8B413D5010AD8B413D5EA
:101E8000030AD8B413D5010AD8B419D50F0AD8B4A7
:101E90001CD5010AD8B41FD5030AD8B41FD5010A2E
:101EA000D8B41FD5070AD8B41FD53C0AD8B423D557
:101EB000010AD8B423D5030AD8B423D5010AD8B46B
:101EC00023D5070AD8B426D5010AD8B426D5030AE3
:101ED000D8B425D5010AD8B437D50F0AD8B449D516
:101EE000010AD8B44BD5030AD8B44CD5010AD8B4EA
:101EF0000ED51B0AD8B4F0D5010AD8B47CD5030A94
:101F0000D8B47CD5010AD8B481D5070AD8B48CD509
:101F1000010AD8B48DD5030AD8B493D5010AD8B430
:101F200094D50F0AD8B49BD5010AD8B49CD5030A1E
:101F3000D8B4A3D5010AD8B4A4D5070AD8B4ABD570
:101F4000010AD8B4ADD5030AD8B4B8D5010AD8B4BB
:101F5000C8D57F0AD8B4D6D5010AD8B4FAD5030AB1
:101F6000D8B404D6010AD8B40ED6070AD8B41AD603
:101F7000010AD8B427D6030AD8B433D6010AD8B494
:101F80003DD60F0AD8B448D6010AD8B453D6030AAE
:101F9000D8B45ED6010AD8B46DD6070AD8B47BD6B9
:101FA0001C0AD8B489D6010AD8B4A2D6030AD8B478
:101FB000BBD6010AD8B4DBD6070AD8B4FDD6010ACD
:101FC000D8B417D71A4A1B2A1200E8CF02F056D10C
:101FD0000204D8A408D0899289908D90899A899812
:101FE0008996899412008D948D928B928B908B940C
:101FF000899C899E12000204D8A408D08982899005
:102000008D90899A89988996899412008D848D92F1
:102010008B928B908B94899C899E12000204D8A489
:1020200008D089808D80898A898889868984899267
:1020300012008D828B828B808B84898C898E8D940B
:1020400012000204D8A408D08988898689928990D0
:102050008D90899A899412008B84898C8D948D92AD
:102060008B928B90899E12000204D8A408D0898A92
:102070008D808982898689848990899812008B80D5
:102080008B828D84898C898E8D928B9412000204B0
:10209000D8A408D0898A8988898289868984899088
:1020A0008D9012008B808B848D84898C898E8D928B
:1020B0008B9212000204D8A408D08988898689826C
:1020C00089808D90899A899412008B84898C8D8463
:1020D0008D828B928B90899E12000204D8A408D026
:1020E000898A89888982898089848D90899612005D
:1020F0008B808B848D848D82898E8B92899C12003B
:102100000204D8A408D08D80898A89888982898030
:102110008984899612008B828B808B848D848D823A
:10212000898E899C12000204D8A408D089888986E7
:102130008984899289908D90899A12008B84898CE8
:10214000898E8D948D928B928B9012000204D8A46C
:1021500008D0898289808D80898A89888986898446
:1021600012008D848D828B828B808B84898C898EEA
:1021700012000204D8A408D089828980898A8988BB
:10218000898689848D9012008D848D828B808B84CA
:10219000898C898E8B9212000204D8A408D089827F
:1021A00089808D80898889868984899A12008D84A6
:1021B0008D828B828B84898C898E8B901200020495
:1021C000D8A408D0898289808D80898A8988899657
:1021D000899412008D848D828B828B808B84899C64
:1021E000899E12000204D8A408D089808D80898A33
:1021F000898489928998899612008D828B828B803E
:10220000898E8D948B94899C12000204D8A408D0E6
:1022100089828D80898A898889868990899412002B
:102220008D848B828B808B84898C8D92899E120009
:102230000204D8A408D0898289808D80898A898403
:102240008998899612008D848D828B828B80898EED
:102250008B94899C12000204D8A408D089828980BA
:102260008D808984899A8998899612008D848D82BF
:102270008B82898E8B908B94899C120001502D0A41
:10228000D8B4B9D61D0AD8B4C9D6010AD8B4D9D69B
:10229000030AD8B4E9D6010AD8B4F9D6070AD8B4E3
:1022A00009D7010AD8B419D7030AD8B429D7010A23
:1022B000D8B439D70F0AD8B449D7010AD8B459D7F6
:1022C000780AD8B469D7030AD8B479D7010AD8B440
:1022D00089D7070AD8B499D7010AD8B4A9D7030A6D
:1022E000D8B4B9D71E0AD8B473D6390AD8B454D7DB
:1022F000030AD8B464D7010AD8B474D7070AD8B48B
:1023000084D7010AD8B494D7030AD8B4A4D71E0A34
:10231000D8A412005DD6E8CF01F00138F00B016EB1
:1023200001380F0B016E20D0300E1200310E12005A
:10233000320E1200330E1200340E1200350E12004F
:10234000360E1200370E1200380E1200390E12002F
:10235000410E1200420E1200430E1200440E1200F3
:10236000450E1200460E12000150000AD8B4DCD708
:10237000010AD8B4DBD7030AD8B4DAD7010AD8B433
:10238000D9D7070AD8B4D8D7010AD8B4D7D7030AFF
:10239000D8B4D6D7010AD8B4D5D70F0AD8B4D4D771
:1023A000010AD8B4D3D7030AD8B4D2D7010AD8B413
:1023B000D1D7070AD8B4D0D7010AD8B4CFD7030AE7
:1023C000D8B4CED7010AD8B4CDD7000E1200E8CFCA
:1023D00006F043D0056604D0040E086EB00E076EFA
:1023E0000504D8A404D0090E086E600E076E0550CF
:1023F000020AD8A404D0250E086E800E076E055080
:10240000030AD8A404D0280E086EB10E076E05503A
:10241000040AD8A404D04B0E086E000E076E07C045
:1024200001F008C002F086EC12F0120005C073FF44
:10243000120005508BEC11F0096E09C001F0010E7D
:10244000E5EC0FF0120005508BEC11F0096E09C09D
:1024500001F0020EE5EC0FF012000650000AD8B4AD
:10246000B9D7010AD8B4E2D7020AD8B4E2D7070A2A
:10247000D8A41200E8D7010E1A24016E000E1B200A
:10248000026E0250080A0110D8A404D0016E000E9A
:102490001D6E0150020E1A24016E000E1B20026EEA
:1024A0000250080A0110D8A404D0016E000E1E6E5E
:1024B0000150020E1A24016E000E1B20026E010450
:1024C000080ED8B40218D8A404D0016E010E1E6EF6
:1024D0000150010E1A24016E000E1B20026E000E28
:1024E0000124D96E020E0220DA6EDF501D6E020E3C
:1024F0001A24016E000E1B20026E000E0124D96EFC
:10250000020E0220DA6EDF501E6E12008C860BD097
:10251000670E07D0190E05D0170E03D00C0E01D090
:10252000CF0E756E2CD001C003F002C004F0045031
:10253000040AD8B40DD00D0AD8B40DD02C0AD8B4E2
:102540000FD00D0AD8B411D0630AD8B413D0E8D78D
:102550000350B00AE5D70350600AD8B4D9D7E0D702
:102560000350800AD8B4D6D7DBD70350B10AD8B409
:10257000D3D7D6D70350000AD8B4D0D7D1D7000EBE
:10258000766E72947096729C719C7298709A728A30
:102590007188718E1200DDEC13F09EEC13F0136E57
:1025A0002D0E016E1350010EE5EC0FF0136E2D0E83
:1025B000016E1350020EE5EC0FF085EC13F013D012
:1025C000000E1A5C080E1B58D8A005D0000E1B6E1A
:1025D000000E1A6E08D0030E086EE80E076E2AEC85
:1025E00013F003EC0CF01C50D8B4EAD7136E2D0E88
:1025F000016E1350010EE5EC0FF0136E2D0E016EFF
:102600001350020EE5EC0FF0FFD701EE00F011EED3
:1026100000F0EE6AE550E150FCE1E250FAE100EE34
:1026200014F00F0EEE6AE806FDE1060EF66E100ECF
:10263000F76E000EF86E02EE00F018EE00F00900E2
:10264000F5CFEEFFE550E150FAE1E250F8E100018C
:10265000CBEF12F007C001F008C002F0000E046ECC
:102660000A0E036E68EC13F001C014F002C015F0FE
:10267000166A176A08D0FF0E1426FF0E1522FF0EE9
:102680001622FF0E17221750141015101610D8B46A
:102690001200F1D7E8CF03F021C004F021C005F00B
:1026A00005D0026E000E056E02500DD00350000AD8
:1026B000D8B4F7D7010AD8B406D0030AD8B403D0E7
:1026C000010AD8A4070A045005240124216E12002F
:1026D00001500302F3CF05F0F4CF06F001500402DD
:1026E000F3CFF4FFF36AF3500526F45006220250AC
:1026F0000302F3CFF4FFF36AF3500526F4500622E9
:1027000005C001F006C002F01200016E000E1C6E42
:102710000150016E000E1F6E0150016E000E206E02
:102720000150000E1B6E000E1A6E016E000E226E1E
:102730000150016E000E216E01501200000E926ECB
:10274000000E946E000E966E000E0F010F013B6F8F
:1027500095969588959A958E959C000E896E000E9B
:102760008B6E000E8C6E000E8D6E1200E8CF06F0A0
:1027700001C002F0036A18C004F019C005F0065049
:10278000000AD8A4010A02500424186E0350052040
:10279000196E1200E8CF01F021C002F00150000ACA
:1027A000D8B409D0010AD8B406D0030AD8B403D0EB
:1027B000010AD8A4070A02501200D39ED388D38AF4
:1027C000D38CD350FC0B0209D36ED298D296D294FC
:1027D000D3B41200FDD71DC003F0046A1E500326B7
:1027E000000E042203C001F004C002F01200E8CF82
:1027F00001F002D0745012000150020AD8B4FAD786
:10280000000E1200E8CF03F018C001F019C002F06A
:042810000150120061
:020000040020DA
:08000000FFFFFFFFFFFFFFFF00
:020000040030CA
:0E000000FF08193CFFBD81FF0FC00FE00F404D
:00000001FF
