:04000000E2EF7DF0BE
:10FBC4000B6A0A6A096A086A000EF86E000103EFFC
:10FBD4007EF0000E926E000E946E000E966E000E75
:10FBE4000F010F013B6F95969588959A959C958E7C
:10FBF400000E896E000E8B6E000E8C6E000E8D6EE4
:10FC04001200EBEC7DF0040E026EB00E016E32ECCD
:10FC14007EF0056E010E016E0550066E2D0E026E0D
:10FC2400065073EC7EF0056E020E016E0550066EF2
:10FC34002D0E026E065073EC7EF0A4AAFED774500B
:10FC4400F00A076E056E010E016E055007C002F042
:10FC540073EC7EF007500A0AD8B4EFD7010AEDD747
:10FC64008C860BD0CF0E07D0670E05D0190E03D0AB
:10FC7400170E01D00C0E756E2DD001C003F002C01A
:10FC840004F00450040AD8B40DD00D0AD8B40FD02F
:10FC94002C0AD8B411D00D0AD8B413D0630AD8B43E
:10FCA40015D018D00350B00AD8B4DCD713D0035001
:10FCB400600AD8B4D9D70ED00350800AD8B4D6D7A6
:10FCC40009D00350B10AD8B4D3D704D00350000AE2
:10FCD400D8B4D0D77294709671887298718E708AE5
:10FCE400120054D10104D8A407D0899289908D9030
:10FCF400899A8998899689948D948D928B928B9008
:10FD04008B94899C899E12000104D8A407D089820F
:10FD140089908D90899A8998899689948D848D92F9
:10FD24008B928B908B94899C899E12000104D8A499
:10FD340008D089808D80898A898889868984899276
:10FD440012008D828B828B808B84898C898E8D941A
:10FD540012000104D8A408D08988898689928990E0
:10FD64008D90899A899412008B84898C8D948D92BC
:10FD74008B928B90899E12000104D8A408D0898AA2
:10FD84008D808982898689848990899812008B80E4
:10FD94008B828D84898C898E8D928B9412000104C0
:10FDA400D8A408D0898A8988898289868984899097
:10FDB4008D9012008B808B848D84898C898E8D929A
:10FDC4008B9212000104D8A408D08988898689827C
:10FDD40089808D90899A899412008B84898C8D8472
:10FDE4008D828B928B90899E12000104D8A408D036
:10FDF400898A89888982898089848D90899612006C
:10FE04008B808B848D848D82898E8B92899C120049
:10FE14000104D8A408D08D80898A89888982898040
:10FE24008984899612008B828B808B848D848D8249
:10FE3400898E899C12000104D8A408D089888986F7
:10FE44008984899289908D90899A12008B84898CF7
:10FE5400898E8D948D928B928B9012000104D8A47C
:10FE640008D0898289808D80898A89888986898455
:10FE740012008D848D828B828B808B84898C898EF9
:10FE840012000104D8A408D089828980898A8988CB
:10FE9400898689848D9012008D848D828B808B84D9
:10FEA400898C898E8B9212000104D8A408D089828F
:10FEB40089808D80898889868984899A12008D84B5
:10FEC4008D828B828B84898C898E8B9012000104A5
:10FED400D8A408D0898289808D80898A8988899666
:10FEE400899412008D848D828B828B808B84899C73
:10FEF400899E12000104D8A408D089808D80898A43
:10FF0400898489928998899612008D828B828B804C
:10FF1400898E8D948B94899C12000104D8A408D0F6
:10FF240089828D80898A898889868990899412003A
:10FF34008D848B828B808B84898C8D92899E120018
:10FF44000104D8A408D0898289808D80898A898413
:10FF54008998899612008D848D828B828B80898EFC
:10FF64008B94899C12000104D8A408D089828980CA
:10FF74008D808984899A8998899612008D848D82CE
:10FF84008B82898E8B908B94899C120002502D0A4F
:10FF9400D8B4BAD61D0AD8B4C9D6010AD8B4D9D6A9
:10FFA400030AD8B4E9D6010AD8B4F9D6070AD8B4F2
:10FFB40009D7010AD8B419D7030AD8B429D7010A32
:10FFC400D8B439D70F0AD8B449D7010AD8B459D705
:10FFD4005B0AD8B47CD7010AD8B48CD7070AD8B442
:10FFE4009CD7010AD8B4ACD7030AD8B4BCD70D0A3D
:0CFFF400D8B45AD7130AD8A4120074D64F
:020000040020DA
:08000000FFFFFFFFFFFFFFFF00
:020000040030CA
:0E000000FF18193CFFBD81FF0FC00FE00F403D
:00000001FF
