:040000006FEF12F09C
:1010000000000800000000000000000000000000D8
:1010100000000000000000000000000000000000D0
:1010200000000000000000000000000000000000C0
:1010300000000000000000000000000000000000B0
:1010400000000000000000000000000000000000A0
:101050000000000000000000000000000000000090
:101060000000000000000000000000000000000080
:101070000000000000000000000000000000000070
:101080000000000000000000000000000000000060
:101090000000000000000000000000000000000050
:1010A0000000000000000000000000000000000040
:1010B0000000000000000000000000000000000030
:1010C0000000000000000000000000000000000020
:1010D0000000000000000000000000000000000010
:1010E0000000000000000000000000000000000000
:1010F00000000000000000000000000000000000F0
:101100000000000000001B3806030800000000007B
:1011100000000000000000000000000000000000CF
:1011200000000000000000000000000000000000BF
:1011300000000000000000000000000000000000AF
:10114000000000000000000000000000000000009F
:10180000000000000000FAEC11F00BC019F00BC052
:101810001AF01B6AC8D2176E010E0F6E1750000E19
:1018200051EC12F090D3176E000E0F6E1750000E91
:1018300051EC12F088D30C50E3EC12F0C5D10950F2
:10184000E3EC12F00B6E79D20BC013F00C5035ECB8
:1018500011F079D30BC013F0095035EC11F06DD2B3
:101860000AC013F0095035EC11F01AD1380E0524D6
:10187000D96E070E0620A6D1000EEEEC12F0A4D110
:10188000010EEEEC12F0A0D10EC00BF05CD30DC037
:101890000BF059D30CC00BF056D3380E0524D96E7B
:1018A000070E0620DA6E0BC0DFFF4DD30BC00FF022
:1018B000000EA2EC12F047D30BC00FF0010EA2EC09
:1018C00012F041D30BC00EF03ED30BC00CF03BD353
:1018D00009C00BF032D20BC019F00CC00BF019C0CC
:1018E0000CF031D30C500B162ED30B500C140BD024
:1018F0000C500B1228D30B500C1005D00C500B1AA7
:1019000022D30B500C180B6E0B1E1DD30BC019F0FD
:101910001904D8A408D0176E010E0F6E1750000ED0
:1019200051EC12F010D3176E000E0F6E1750000E10
:1019300051EC12F008D30BC019F01904D8A408D048
:10194000176E010E0F6E1750000E51EC12F0FBD205
:10195000176E000E0F6E1750000E51EC12F0F3D2FE
:101960000BC018F00B5018242FD10BC018F01850D2
:1019700081D10C500B6208D0176E010E0F6E1750FC
:10198000030E51EC12F007D0176E000E0F6E1750B9
:10199000030E51EC12F00C500B5CD8B008D0176E4F
:1019A000010E0F6E1750020E51EC12F007D0176E99
:1019B000000E0F6E1750020E51EC12F00B500C5C23
:1019C000D8B008D0176E010E0F6E1750010E51ECF3
:1019D00012F0B9D2176E000E0F6E1750010E51ECB7
:1019E00012F0B1D2D7EC12F011D0030EB6EC12F017
:1019F000176E1704D8A4A7D264D0030EB6EC12F069
:101A0000176E1704D8A44CD0D7EC12F00FC007F013
:101A100010C008F045D0030EB6EC12F036D0030E1D
:101A2000B6EC12F00009D8A43BD0D7EC12F0EED7F8
:101A3000010EB6EC12F0DCD7010EB6EC12F0176E08
:101A40001704D8A42DD0D7EC12F0E0D7020EB6ECD4
:101A500012F0CED7020EB6EC12F0176E1704D8A40F
:101A60001FD0D7EC12F0D2D7000EB6EC12F0C0D7D0
:101A7000000EB6EC12F0176E1704D8A411D0D7ECF4
:101A800012F0C4D7000EB6EC12F00009B3D7000E66
:101A9000B6EC12F00009D8A403D0D7EC12F0B6D7F8
:101AA000020E0726000E08224ED20E50010D380EEF
:101AB000F324D96E070EF420DA6E07C0DFFF020EA2
:101AC0000E2605C007F006C008F03DD20E50010DED
:101AD000380EF324D96E070EF420DA6E07C0DFFF4C
:101AE000020E0E26D7EC12F091D7020E0E5E0E50AB
:101AF000010D380EF324D96E070EF420DA6EDF5094
:101B0000176E1750076E086A1ED20E50010D380E60
:101B1000F324D96E070EF420DA6E0BC0DFFF24D059
:101B20000E50010D380EF324D96E070EF420DA6E34
:101B30000CC0DFFF19D00E50010D380EF324D96E02
:101B4000070EF420DA6E05C0DFFF020E0E26FBD171
:101B50000E50010D380EF324D96E070EF420DA6E04
:101B6000000EEEEC12F00DD00E2AEDD10E50010D4C
:101B7000380EF324D96E070EF420DA6E010EEEEC67
:101B800012F0DF6EF1D70E50010D380EF324D96E2E
:101B9000070EF420DA6E0DC0DFFFE6D70E50010D00
:101BA000380EF324D96E070EF420DA6E09C0DFFF79
:101BB0000E2AC3D00E060E50010D380EF324D96E36
:101BC000070EF420DA6EDF500B6EBDD10E060E50FC
:101BD000010D380EF324D96E070EF420DA6EDF50B3
:101BE0000C6EB1D1020E0E5E0E50010D380EF324B4
:101BF000D96E070EF420DA6EDF50176E1750056E9F
:101C0000066AA1D10E060E50010D380EF324D96ECE
:101C1000070EF420DA6EDF500F6E000EA2EC12F009
:101C200092D10E060E50010D380EF324D96E070E18
:101C3000F420DA6EDF500F6E010EA2EC12F083D1A9
:101C40000C501A26000E1B22000E1A5C010E1B58A7
:101C5000D8A008D0176E010E0F6E1750040E51EC6D
:101C600012F007D0176E000E0F6E1750040E51ECD5
:101C700012F00C500B2667D109501A26000E1B22B9
:101C8000000E1A5C010E1B58D8A008D0176E010E6A
:101C90000F6E1750040E51EC12F007D0176E000EA5
:101CA0000F6E1750040E51EC12F009500B2645D060
:101CB0000BC01AF01B6AFF0E1A26000E1B220C50D6
:101CC0001A5E000E1B5AFF0E1A5C000E1B58D8B08D
:101CD00008D0176E010E0F6E1750040E51EC12F063
:101CE00007D0176E000E0F6E1750040E51EC12F055
:101CF0000C500B5E28D10BC01AF01B6AFF0E1A267F
:101D0000000E1B2209501A5E000E1B5AFF0E1A5CB1
:101D1000000E1B58D8B008D0176E010E0F6E17506A
:101D2000040E51EC12F007D0176E000E0F6E175014
:101D3000040E51EC12F009500B5E074A082A03D139
:101D4000010E0B241A6E1B6A000E1B22000E1A5C79
:101D5000010E1B58D8A008D0176E010E0F6E175039
:101D6000040E51EC12F007D0176E000E0F6E1750D4
:101D7000040E51EC12F00B2AE6D00B04196E192850
:101D8000D8A408D0176E010E0F6E1750040E51EC38
:101D900012F007D0176E000E0F6E1750040E51ECA4
:101DA00012F00B06D0D0380E0724D96E070E08208B
:101DB000DA6EDF50010AD8B42ED5030AD8B433D571
:101DC000010AD8B438D5070AD8B439D5010AD8B42D
:101DD0003BD5030AD8B43ED5010AD8B441D5170A79
:101DE000D8B444D5010AD8B447D5030AD8B448D5E5
:101DF000010AD8B449D5070AD8B449D5010AD8B4DC
:101E000049D5030AD8B449D5010AD8B44FD50F0A29
:101E1000D8B452D5010AD8B455D5030AD8B455D58B
:101E2000010AD8B455D5070AD8B455D53C0AD8B458
:101E300059D5010AD8B459D5030AD8B459D5010ADD
:101E4000D8B459D5070AD8B45CD5010AD8B45CD542
:101E5000030AD8B45BD5010AD8B46DD50F0AD8B43B
:101E60007FD5010AD8B481D5030AD8B482D5010A36
:101E7000D8B444D51B0AD8B424D6010AD8B4B2D5F4
:101E8000030AD8B4B2D5010AD8B4B7D5070AD8B472
:101E9000C2D5010AD8B4C3D5030AD8B4C9D5010A3A
:101EA000D8B4CAD50F0AD8B4D1D5010AD8B4D2D57E
:101EB000030AD8B4D9D5010AD8B4DAD5070AD8B4F8
:101EC000E1D5010AD8B4E3D5030AD8B4EED5010AA6
:101ED000D8B4FCD57F0AD8B408D6010AD8B415D630
:101EE000030AD8B41DD6010AD8B425D6070AD8B437
:101EF0002FD6010AD8B43AD6030AD8B444D6010A78
:101F0000D8B44CD60F0AD8B455D6010AD8B45ED688
:101F1000030AD8B467D6010AD8B474D6070AD8B46D
:101F200080D61C0AD8B48CD6010AD8B4A5D6030A28
:101F3000D8B4BED6010AD8B4DED6070AD8B400D7C2
:101F4000010AD8B41AD7074A082A1200E8CF10F0BD
:101F500054D11004D8A407D0899289908D90899A81
:101F60008998899689948D948D928B928B908B947D
:101F7000899C899E12001004D8A407D08982899078
:101F80008D90899A8998899689948D848D928B9267
:101F90008B908B94899C899E12001004D8A408D041
:101FA00089808D80898A89888986898489921200AE
:101FB0008D828B828B808B84898C898E8D9412008C
:101FC0001004D8A408D089888986899289908D9038
:101FD000899A899412008B84898C8D948D928B922E
:101FE0008B90899E12001004D8A408D0898A8D8015
:101FF0008982898689848990899812008B808B8256
:102000008D84898C898E8D928B9412001004D8A4B3
:1020100008D0898A898889828986898489908D9067
:1020200012008B808B848D84898C898E8D928B920B
:1020300012001004D8A408D08988898689828980F2
:102040008D90899A899412008B84898C8D848D82DD
:102050008B928B90899E12001004D8A408D0898A94
:1020600089888982898089848D90899612008B80E5
:102070008B848D848D82898E8B92899C12001004B2
:10208000D8A408D08D80898A8988898289808984AA
:10209000899612008B828B808B848D848D82898EB1
:1020A000899C12001004D8A408D089888986898464
:1020B000899289908D90899A12008B84898C898E5F
:1020C0008D948D928B928B9012001004D8A408D01E
:1020D000898289808D80898A89888986898412008D
:1020E0008D848D828B828B808B84898C898E12006B
:1020F0001004D8A408D089828980898A8988898631
:1021000089848D9012008D848D828B808B84898C44
:10211000898E8B9212001004D8A408D089828980FD
:102120008D80898889868984899A12008D848D8220
:102130008B828B84898C898E8B9012001004D8A49A
:1021400008D0898289808D80898A89888996899436
:1021500012008D848D828B828B808B84899C899EDA
:1021600012001004D8A408D089808D80898A8984BF
:1021700089928998899612008D828B828B80898EB4
:102180008D948B94899C12001004D8A408D0898265
:102190008D80898A898889868990899412008D84A6
:1021A0008B828B808B84898C8D92899E1200100487
:1021B000D8A408D0898289808D80898A8984899869
:1021C000899612008D848D828B828B80898E8B9470
:1021D000899C12001004D8A408D0898289808D803F
:1021E0008984899A8998899612008D848D828B8240
:1021F000898E8B908B94899C12000F502D0AD8B435
:10220000BAD61D0AD8B4C9D6010AD8B4D9D6030A99
:10221000D8B4E9D6010AD8B4F9D6070AD8B409D790
:10222000010AD8B419D7030AD8B429D7010AD8B4F7
:1022300039D70F0AD8B449D7010AD8B459D7580AA0
:10224000D8B469D7030AD8B479D7010AD8B489D7E2
:10225000070AD8B499D7010AD8B4A9D7030AD8B4C1
:10226000B9D71E0AD8A4120074D6E8CF14F03BD018
:10227000136604D0040E166EB00E156E1304D8A4A7
:1022800004D0090E166E600E156E1350020AD8A403
:1022900004D0250E166E800E156E1350030AD8A4B6
:1022A00004D0280E166EB10E156E1350040AD8A471
:1022B00004D04B0E166E000E156E15C00FF016C032
:1022C00010F081EC11F0120013C073FF120013C064
:1022D0000FF0010EA6EC0FF0120013C00FF0020E6B
:1022E000A6EC0FF012001450000AD8B4C1D7010AAE
:1022F000D8B4EAD7020AD8B4EAD7070AD8A4120099
:10230000ECD78C860BD0670E07D0190E05D0170EB0
:1023100003D00C0E01D0CF0E756E2CD00FC011F073
:1023200010C012F01250040AD8B40DD00D0AD8B45F
:102330000DD02C0AD8B40FD00D0AD8B411D0630A2E
:10234000D8B413D0E8D71150B00AE5D71150600ABD
:10235000D8B4D9D7E0D71150800AD8B4D6D7DBD7B4
:102360001150B10AD8B4D3D7D6D71150000AD8B477
:10237000D0D7D1D7000E766E72947096729C719CF5
:102380007298709A728A7188718E1200146E000EA3
:102390000B6E1450146E000E0C6E1450010E086E6D
:1023A000000E076E146E000E0E6E1450146E000EAA
:1023B0000F6E1450000E51EC12F0146E000E0F6EE2
:1023C0001450010E51EC12F0146E000E0F6E1450EA
:1023D000020E51EC12F0146E000E0F6E1450040E2B
:1023E00051EC12F0146E000E0F6E1450030E51ECEF
:1023F00012F01200010E07240F6E000E0820106E5E
:102400001050080A0F10D8A404D00F6E000E096EE9
:102410000F50020E07240F6E000E0820106E105091
:10242000080A0F10D8A404D00F6E000E0A6E0F50C9
:10243000020E07240F6E000E0820106E0F04080E07
:10244000D8B41018D8A412000F6E010E0A6E0F50E7
:102450001200C9EC12F08AEC12F01C6E2D0E0F6EF9
:102460001C50010EA6EC0FF01C6E2D0E0F6E1C50B2
:10247000020EA6EC0FF0C6EC11F0000E075C010E88
:102480000858D8A006D0000E075C080E0858D8A03F
:1024900005D0010E086E000E076EEFD703EC0CF0AE
:1024A000ECD7E8CF11F00DC012F00DC013F005D03D
:1024B000106E000E136E10500DD01150000AD8B4DB
:1024C000F7D7010AD8B406D0030AD8B403D0010A5A
:1024D000D8A4070A125013240F240D6E120000EE28
:1024E00001F00E0EEE6AE806FDE1060EF66E100E25
:1024F000F76E000EF86E07EE38F018EE00F00900E7
:10250000F5CFEEFFE550E150FAE1E250F8E10001CD
:1025100029EF12F0000E926E000E946E000E966E71
:10252000000E0F010F013B6F95969588959A958E39
:10253000959C000E896E000E8B6E000E8C6E000E48
:102540008D6E1200E8CF14F00FC010F0116A05C0B4
:1025500012F006C013F01450000AD8A4010A10505B
:102560001224056E11501320066E1200E8CF0FF0F2
:102570000DC010F00F50000AD8B409D0010AD8B429
:1025800006D0030AD8B403D0010AD8A4070A105011
:102590001200D39ED388D38AD38CD350FC0B02096C
:1025A000D36ED298D296D294D3B41200FDD709C07C
:1025B00011F0126A0A501126000E122211C00FF0FB
:1025C00012C010F01200E8CF0FF002D074501200C9
:1025D0000F50020AD8B4FAD7000E1200E8CF11F05B
:0C25E00005C00FF006C010F00F501200F4
:020000040020DA
:08000000FFFFFFFFFFFFFFFF00
:020000040030CA
:0E000000FF08193CFFBD81FF0FC00FE00F404D
:00000001FF
