:0400000061EF79F043
:10F2520001C003F002C004F003C020F001C01FF09F
:10F26200120002D0745012000150020AD8B4FAD728
:10F27200000E12001FC001F0026A20500126000E8B
:10F28200022201C01DF002C01EF0120001C003F0F4
:10F29200046A02500326000E042203C01BF004C0BD
:10F2A2001CF01200D39ED388D38AD38CD350FC0B8C
:10F2B2000209D36ED298D296D294D3B41200FDD75B
:10F2C20007EE38F018EE00F0EE6AE550E150FCE18E
:10F2D200E250FAE100EE15F0130EEE6AE806FDE1E7
:10F2E200000EF86E00013FEF7AF0000E926E000EF3
:10F2F200946E000E966E000E0F010F013B6F9596F5
:10F302009588959A958E959C000E896E000E8B6E4F
:10F31200000E8C6E000E8D6E1200056E000E236EB6
:10F322000550056E000E246E0550000E026E000E92
:10F33200016E29EC79F0010E226E000E216E056E2F
:10F34200000E276E05502696269826942692269021
:10F3520012008C860BD0670E07D0190E05D0170E3F
:10F3620003D00C0E01D0CF0E756E2CD001C003F06D
:10F3720002C004F00450040AD8B40DD00D0AD8B467
:10F382000DD02C0AD8B40FD00D0AD8B411D0630A0C
:10F39200D8B413D0E8D70350B00AE5D70350600AB7
:10F3A200D8B4D9D7E0D70350800AD8B4D6D7DBD7A0
:10F3B2000350B10AD8B4D3D7D6D70350000AD8B471
:10F3C200D0D7D1D7000E766E72947096729C719CD3
:10F3D2007298709A728A7188718E120041D0066694
:10F3E20004D0040E096EB00E086E0604D8A404D030
:10F3F200090E096E600E086E0650020AD8A404D0E7
:10F40200250E096E800E086E0650030AD8A404D099
:10F41200280E096EB10E086E0650040AD8A404D054
:10F422004B0E096E000E086E08C001F009C002F012
:10F43200AAEC79F0120006C073FF1200076E010EEB
:10F44200016E075006C002F04EEC7BF01200076E10
:10F45200020E016E075006C002F04EEC7BF0120065
:10F462000550000AD8B4BBD7010AD8B4E4D7020ABF
:10F47200D8B4E4D7070AD8A41200E9D753EC79F03C
:10F4820076EC79F0136E010E016E1350146E2D0E90
:10F49200026E14504EEC7BF0136E020E016E13508E
:10F4A200146E2D0E026E14504EEC7BF08EEC79F041
:10F4B20019C001F01AC002F099EC7AF0000E215C3A
:10F4C200010E2258D8B005D0010E226E000E216E18
:10F4D200EFD7000E215C010E2258D8A014D0000EE6
:10F4E200215C020E2258D8B00ED0380E2124D96EDB
:10F4F200080E2220DA6EDF500A6E19C00BF01AC015
:10F502000CF0DBEC7CF0000E215C020E2258D8A03D
:10F51200CFD7380E2124D96E090E2220DA6EDF50A1
:10F522000A6E19C00BF01AC00CF0DBEC7CF0C0D7ED
:10F53200010E2124036E000E2220046E000E035CD5
:10F54200010E0458D8B00ED0010E2124036E000E15
:10F552002220046E380E0324D96E070E0420DA6EC0
:10F56200DF50016E020E2124036E000E2220046E73
:10F57200000E035C010E0458D8B00ED0020E2124F6
:10F58200036E000E2220046E380E0324D96E070E7D
:10F592000420DA6EDF50026E010E2124036E000E8B
:10F5A2002220046E000E035C010E0458D8A01AD06B
:10F5B200010E2124036E000E2220046E000E035C55
:10F5C200020E0458D8B00ED0010E2124036E000E94
:10F5D2002220046E380E0324D96E080E0420DA6E3F
:10F5E200DF50016E020E2124036E000E2220046EF3
:10F5F200000E035C010E0458D8A01AD0020E21247A
:10F60200036E000E2220046E000E035C020E0458EC
:10F61200D8B00ED0020E2124036E000E2220046EFA
:10F62200380E0324D96E080E0420DA6EDF50026E03
:10F63200010E2124036E000E2220046E000E035CD4
:10F64200020E0458D8A00ED0010E2124036E000E23
:10F652002220046E380E0324D96E090E0420DA6EBD
:10F66200DF50016E020E2124036E000E2220046E72
:10F67200000E035C020E0458D8A01200020E2124D0
:10F68200036E000E2220046E380E0324D96E090E7A
:10F692000420DA6EDF50026E120054D10104D8A4A5
:10F6A20007D0899289908D90899A899889968994B0
:10F6B2008D948D928B928B908B94899C899E120053
:10F6C2000104D8A407D0898289908D90899A89985B
:10F6D200899689948D848D928B928B908B94899C40
:10F6E200899E12000104D8A408D089808D80898A5D
:10F6F200898889868984899212008D828B828B8087
:10F702008B84898C898E8D9412000104D8A408D030
:10F7120089888986899289908D90899A8994120024
:10F722008B84898C8D948D928B928B90899E120002
:10F732000104D8A408D0898A8D8089828986898427
:10F742008990899812008B808B828D84898C898E16
:10F752008D928B9412000104D8A408D0898A8988DA
:10F7620089828986898489908D9012008B808B840E
:10F772008D84898C898E8D928B9212000104D8A47B
:10F7820008D089888986898289808D90899A89940E
:10F7920012008B84898C8D848D828B928B90899EB2
:10F7A20012000104D8A408D0898A898889828980B4
:10F7B20089848D90899612008B808B848D848D82B2
:10F7C200898E8B92899C12000104D8A408D08D8066
:10F7D200898A8988898289808984899612008B82A4
:10F7E2008B808B848D848D82898E899C120001048A
:10F7F200D8A408D0898889868984899289908D9035
:10F80200899A12008B84898C898E8D948D928B9229
:10F812008B9012000104D8A408D0898289808D803F
:10F82200898A89888986898412008D848D828B8257
:10F832008B808B84898C898E12000104D8A408D015
:10F8420089828980898A8988898689848D90120033
:10F852008D848D828B808B84898C898E8B92120011
:10F862000104D8A408D0898289808D8089888986FC
:10F872008984899A12008D848D828B828B84898CF3
:10F88200898E8B9012000104D8A408D089828980C5
:10F892008D80898A89888996899412008D848D82C7
:10F8A2008B828B808B84899C899E12000104D8A450
:10F8B20008D089808D80898A8984899289988996DD
:10F8C20012008D828B828B80898E8D948B94899C81
:10F8D20012000104D8A408D089828D80898A89887F
:10F8E20089868990899412008D848B828B808B8487
:10F8F200898C8D92899E12000104D8A408D0898235
:10F9020089808D80898A89848998899612008D845C
:10F912008D828B828B80898E8B94899C120001044C
:10F92200D8A408D0898289808D808984899A89980F
:10F93200899612008D848D828B82898E8B908B9416
:10F94200899C120002502D0AD8B4BAD61D0AD8B426
:10F95200C9D6010AD8B4D9D6030AD8B4E9D6010A5D
:10F96200D8B4F9D6070AD8B409D7010AD8B419D736
:10F97200030AD8B429D7010AD8B439D70F0AD8B4A0
:10F9820049D7010AD8B459D7580AD8B469D7030A53
:10F99200D8B479D7010AD8B489D7070AD8B499D785
:10F9A200010AD8B4A9D7030AD8B4B9D71E0AD8A471
:10F9B200120074D63BEC79F00BC001F00CC002F0DF
:10F9C20047EC79F04FD224C001F032EC79F0A9D1A2
:10F9D2000BC001F032EC79F0236E26D224C005F080
:10F9E20023C006F0EFEC79F007D30BC005F023C07B
:10F9F20006F0EFEC79F018D20BC005F00CC006F05F
:10FA0200EFEC79F000D13BEC79F0000E1D5C010EB9
:10FA12001E58D8B008D0380E1D24D96E070E1E20ED
:10FA2200DA6EDF50236E000E1D5C010E1E58D8A048
:10FA320014D0000E1D5C020E1E58D8B00ED0000E5F
:10FA42001D240D6EFF0E1E200E6E380E0D24D96E73
:10FA5200080E0E20DA6EDF50236E000E1D5C020EC1
:10FA62001E58D8A0C9D2000E1D240D6EFE0E1E20F7
:10FA72000E6E380E0D24D96E090E0E2050D11FC005
:10FA820023F0BAD220C023F0B7D227C023F0B4D2D9
:10FA920025C023F0B1D224C023F0AED23BEC79F0E2
:10FAA200000E1D5C010E1E58D8B008D0380E1D2461
:10FAB200D96E070E1E20DA6E23C0DFFF000E1D5C1A
:10FAC200010E1E58D8A014D0000E1D5C020E1E5846
:10FAD200D8B00ED0000E1D240D6EFF0E1E200E6E2D
:10FAE200380E0D24D96E080E0E20DA6E23C0DFFF09
:10FAF200000E1D5C020E1E58D8A07ED2000E1D24E0
:10FB02000D6EFE0E1E200E6E380E0D24D96E090EDD
:10FB12000E20DA6E23C0DFFF6FD223C01FF06CD23B
:10FB220023C020F069D223C027F066D223C024F07C
:10FB320063D20BC023F078D123C010F024C023F08D
:10FB420010C024F059D22450231656D22350241424
:10FB52000BD02450231250D22350241005D024500D
:10FB6200231A4AD223502418236E231E45D223C0BF
:10FB720010F01004D8A402D026803ED226903CD2A7
:10FB820023C00FF023500F24CCD023C00FF00F500E
:10FB92000CD12450236202D0268601D0269624500E
:10FBA200236002D0268401D026942350246002D000
:10FBB200268222D2269220D226A61ED235D026A670
:10FBC20022D01BC021F01CC022F01DD026B614D2B8
:10FBD2002BD026B618D0F5D726A20ED225D026A233
:10FBE20012D0EFD726A408D21FD026A40CD0E9D772
:10FBF20026A002D219D026A006D0E3D726B0FCD187
:10FC020013D026A0DED7020E2126000E2222F4D126
:10FC12002750010D380EF324D96E070EF420DA6E48
:10FC220021C0DFFF020E27261DC021F01EC022F0D8
:10FC3200E3D12750010D380EF324D96E070EF420BC
:10FC4200DA6E21C0DFFF020E2726BBD7020E275E27
:10FC52002750010D380EF324D96E070EF420DA6E08
:10FC6200DF500D6E0D50216E226AC6D12750010D54
:10FC7200380EF324D96E070EF420DA6E23C0DFFFAC
:10FC820038D02750010D380EF324D96E070EF42018
:10FC9200DA6E24C0DFFF2DD02750010D380EF32479
:10FCA200D96E070EF420DA6E1DC0DFFF020E272682
:10FCB200A3D12750010D380EF324D96E070EF4207C
:10FCC200DA6E1FC0DFFF15D02750010D380EF32466
:10FCD200D96E070EF420DA6E20C0DFFF0AD027505B
:10FCE200010D380EF324D96E070EF420DA6E25C00A
:10FCF200DFFF272A81D12750010D380EF324D96E58
:10FD0200070EF420DA6E0BC0DFFF272A8DD02706FC
:10FD12002750010D380EF324D96E070EF420DA6E47
:10FD2200DF50236E69D127062750010D380EF324C8
:10FD3200D96E070EF420DA6EDF50246E5DD1020E0A
:10FD4200275E2750010D380EF324D96E070EF420DA
:10FD5200DA6EDF500D6E0D501D6E1E6A4DD12706F4
:10FD62002750010D380EF324D96E070EF420DA6EF7
:10FD7200DF501F6E41D127062750010D380EF324A4
:10FD8200D96E070EF420DA6EDF50206E35D1245082
:10FD92001126000E1222000E115C010E1258D8A07C
:10FDA20002D0268801D026982450232625D10B5034
:10FDB2001126000E1222000E115C010E1258D8A05C
:10FDC20002D0268801D026980B5023262DD023C09E
:10FDD20011F0126AFF0E1126000E12222450115E3B
:10FDE200000E125AFF0E115C000E1258D8B002D04B
:10FDF200268801D026982450235EFED023C011F01D
:10FE0200126AFF0E1126000E12220B50115E000E16
:10FE1200125AFF0E115C000E1258D8B002D026887A
:10FE220001D026980B50235E214A222AE5D0010EEA
:10FE32002324116E126A000E1222000E115C010EB2
:10FE42001258D8A002D0268801D02698232AD4D0CE
:10FE52002304106E1028D8A402D0268801D0269838
:10FE62002306CAD00A50010AD8B486D6030AD8B4E7
:10FE720085D6010AD8B4A7D5070AD8B4A9D5010AEC
:10FE8200D8B4ACD5030AD8B4B0D5010AD8B4B4D525
:10FE9200170AD8B4B8D5010AD8B4F1D5030AD8B430
:10FEA200F1D5010AD8B4F1D5070AD8B4F1D5010ABF
:10FEB200D8B4F1D5030AD8B4F1D5010AD8B42DD6F5
:10FEC2000F0AD8B42DD6010AD8B42DD6030AD8B455
:10FED2002DD6010AD8B42DD6070AD8B42DD63C0A9D
:10FEE200D8B431D6010AD8B431D6030AD8B431D63F
:10FEF200010AD8B431D6070AD8B434D6010AD8B424
:10FF020034D6030AD8B433D6010AD8B430D60F0A8D
:10FF1200D8B436D6010AD8B438D6030AD8B439D6FA
:10FF2200010AD8B41CD61B0AD8B47ED6010AD8B4AA
:10FF320048D6030AD8B440D6010AD8B440D6070A34
:10FF4200D8B444D6010AD8B444D6030AD8B444D6A5
:10FF5200010AD8B444D60F0AD8B444D6010AD8B498
:10FF620044D6030AD8B444D6010AD8B444D6070A00
:10FF7200D8B444D6010AD8B444D6030AD8B448D671
:10FF8200010AD8B456D67F0AD8B460D6010AD8B4CA
:10FF92006DD6030AD8B475D6010AD8B47DD6070A3D
:10FFA200D8B487D6010AD8B48FD6030AD8B497D664
:10FFB200010AD8B4A0D6170AD8B4E9D6010AD8B42F
:10FFC200F6D6030AD8B403D7010AD8B417D7070A5A
:10FFD200D8B42DD7010AD8B43BD73D0AD8B497D6A6
:10FFE200010AD8B4A0D6030AD8B4A9D6010AD8B453
:0EFFF200B6D6070AD8B4BFD6214A222A12007A
:020000040020DA
:08000000FFFFFFFFFFFFFFFF00
:020000040030CA
:0E000000FF08193CFFBD81FF0FC00FE00F404D
:00000001FF
