:0400000088EF12F083
:1010000000000800000000000000000000000000D8
:1010100000000000000000000000000000000000D0
:1010200000000000000000000000000000000000C0
:1010300000000000000000000000000000000000B0
:1010400000000000000000000000000000000000A0
:101050000000000000000000000000000000000090
:101060000000000000000000000000000000000080
:101070000000000000000000000000000000000070
:101080000000000000000000000000000000000060
:101090000000000000000000000000000000000050
:1010A0000000000000000000000000000000000040
:1010B0000000000000000000000000000000000030
:1010C0000000000000000000000000000000000020
:1010D0000000000000000000000000000000000010
:1010E0000000000000000000000000000000000000
:1010F00000000000000000000000000000000000F0
:101100000000000000001B3806030800000000007B
:1011100000000000000000000000000000000000CF
:1011200000000000000000000000000000000000BF
:1011300000000000000000000000000000000000AF
:10114000000000000000000000000000000000009F
:1018000000000000000031EC12F01DC00FF01DC000
:1018100010F0116A19C00CF01AC00DF0FBD2096E5D
:10182000010E016E0950000EADEC12F0C3D3096E2B
:10183000000E016E0950000EADEC12F0BBD31E502D
:1018400024EC13F0F0D11B5024EC13F01D6EACD23D
:101850001DC005F01E506CEC11F0ACD31DC005F09E
:101860001B506CEC11F0A0D21CC005F01B506CECAE
:1018700011F01AD1000E1724D96E020E1820D1D102
:10188000000E2FEC13F0CFD1010E2FEC13F0CBD1C3
:1018900020C01DF08FD31FC01DF08CD31EC01DF0C3
:1018A00089D3000E1724D96E020E1820DA6E1DC0DF
:1018B000DFFF80D31DC001F0000EE3EC12F07AD3FD
:1018C0001DC001F0010EE3EC12F074D31DC020F036
:1018D00071D31DC01EF06ED31BC01DF065D21DC09C
:1018E0000FF01EC01DF00FC01EF064D31E501D1659
:1018F00061D31D501E140BD01E501D125BD31D5002
:101900001E1005D01E501D1A55D31D501E181D6ED9
:101910001D1E50D31DC00FF00F04D8A408D0096EAF
:10192000010E016E0950000EADEC12F043D3096EAA
:10193000000E016E0950000EADEC12F03BD31DC03D
:101940000FF00F04D8A408D0096E010E016E0950E3
:10195000000EADEC12F02ED3096E000E016E095090
:10196000000EADEC12F026D31DC00EF01D500E245B
:101970005AD11DC00EF00E50B4D11E501D6208D0B9
:10198000096E010E016E0950030EADEC12F007D086
:10199000096E000E016E0950030EADEC12F01E50E0
:1019A0001D5CD8B008D0096E010E016E0950020E00
:1019B000ADEC12F007D0096E000E016E0950020E58
:1019C000ADEC12F01D501E5CD8B008D0096E010EAF
:1019D000016E0950010EADEC12F0ECD2096E000E52
:1019E000016E0950010EADEC12F0E4D218EC13F0C8
:1019F00011D0030EF7EC12F0096E0904D8A4DAD264
:101A000066D0030EF7EC12F0096E0904D8A44CD08E
:101A100018EC13F001C019F002C01AF045D0030E03
:101A2000F7EC12F036D0030EF7EC12F00009D8A450
:101A30003BD018EC13F0EED7010EF7EC12F0DCD728
:101A4000010EF7EC12F0096E0904D8A42DD018ECA1
:101A500013F0E0D7020EF7EC12F0CED7020EF7EC3F
:101A600012F0096E0904D8A41FD018EC13F0D2D7D5
:101A7000000EF7EC12F0C0D7000EF7EC12F0096E72
:101A80000904D8A411D018EC13F0C4D7000EF7EC59
:101A900012F00009B3D7000EF7EC12F00009D8A439
:101AA00003D018EC13F0B6D7020E1926000E1A2236
:101AB00081D22050010D0101000EF324D96E0101E5
:101AC000010EF420DA6E19C0DFFF020E202617C0C7
:101AD00019F018C01AF06ED22050010D0101000E4D
:101AE000F324D96E0101010EF420DA6E19C0DFFF74
:101AF000020E202618EC13F08DD7020E205E205027
:101B0000010D0101000EF324D96E0101010EF42034
:101B1000DA6EDF50096E09500C6E0D6A2050010D0F
:101B20000101000EF324D96E0101010EF420DA6EDA
:101B3000DF50096E09500C240A6E000E0D200B6E4A
:101B40000A5019260B50B3D72050010D0101000E89
:101B5000F324D96E0101010EF420DA6E1DC0DFFFFF
:101B60002AD02050010D0101000EF324D96E01018D
:101B7000010EF420DA6E1EC0DFFF1DD02050010DD3
:101B80000101000EF324D96E0101010EF420DA6E7A
:101B900017C0DFFF020E20260DD22050010D0101DB
:101BA000000EF324D96E0101010EF420DA6E000E4E
:101BB0002FEC13F00FD0202AFDD12050010D010190
:101BC000000EF324D96E0101010EF420DA6E010E2D
:101BD0002FEC13F0DF6EEFD72050010D0101000E46
:101BE000F324D96E0101010EF420DA6E1FC0DFFF6D
:101BF000E2D72050010D0101000EF324D96E01013E
:101C0000010EF420DA6E1BC0DFFF202ACDD02006A3
:101C10002050010D0101000EF324D96E0101010EC7
:101C2000F420DA6EDF501D6EC5D120062050010D64
:101C30000101000EF324D96E0101010EF420DA6EC9
:101C4000DF501E6EB7D1020E205E2050010D010143
:101C5000000EF324D96E0101010EF420DA6EDF507C
:101C6000096E0950176E186AA5D120062050010D83
:101C70000101000EF324D96E0101010EF420DA6E89
:101C8000DF50016E000EE3EC12F094D120062050DC
:101C9000010D0101000EF324D96E0101010EF420A3
:101CA000DA6EDF50016E010EE3EC12F083D11E50AC
:101CB0001026000E1122000E105C010E1158D8A043
:101CC00008D0096E010E016E0950040EADEC12F041
:101CD00007D0096E000E016E0950040EADEC12F033
:101CE0001E501D2667D11B501026000E1122000E1B
:101CF000105C010E1158D8A008D0096E010E016EBB
:101D00000950040EADEC12F007D0096E000E016E02
:101D10000950040EADEC12F01B501D2645D01DC01D
:101D200010F0116AFF0E1026000E11221E50105ED8
:101D3000000E115AFF0E105C000E1158D8B008D0DA
:101D4000096E010E016E0950040EADEC12F007D0C1
:101D5000096E000E016E0950040EADEC12F01E501B
:101D60001D5E28D11DC010F0116AFF0E1026000E56
:101D700011221B50105E000E115AFF0E105C000E57
:101D80001158D8B008D0096E010E016E0950040E2A
:101D9000ADEC12F007D0096E000E016E0950040E72
:101DA000ADEC12F01B501D5E194A1A2A03D1010E28
:101DB0001D24106E116A000E1122000E105C010E1F
:101DC0001158D8A008D0096E010E016E0950040EFA
:101DD000ADEC12F007D0096E000E016E0950040E32
:101DE000ADEC12F01D2AE6D01D040F6E0F28D8A40A
:101DF00008D0096E010E016E0950040EADEC12F010
:101E000007D0096E000E016E0950040EADEC12F001
:101E10001D06D0D0000E1924D96E020E1A20DA6EDB
:101E2000DF50010AD8B4FBD4030AD8B400D5010AA4
:101E3000D8B405D5070AD8B406D5010AD8B408D550
:101E4000030AD8B40BD5010AD8B40ED5170AD8B4F2
:101E500011D5010AD8B414D5030AD8B415D5010A8E
:101E6000D8B416D5070AD8B416D5010AD8B416D5F1
:101E7000030AD8B416D5010AD8B41CD50F0AD8B4B1
:101E80001FD5010AD8B422D5030AD8B422D5010A35
:101E9000D8B422D5070AD8B422D53C0AD8B426D55E
:101EA000010AD8B426D5030AD8B426D5010AD8B475
:101EB00026D5070AD8B429D5010AD8B429D5030AEA
:101EC000D8B428D5010AD8B43AD50F0AD8B44CD51D
:101ED000010AD8B44ED5030AD8B44FD5010AD8B4F4
:101EE00011D51B0AD8B4F3D5010AD8B47FD5030A9B
:101EF000D8B47FD5010AD8B484D5070AD8B48FD511
:101F0000010AD8B490D5030AD8B496D5010AD8B43A
:101F100097D50F0AD8B49ED5010AD8B49FD5030A25
:101F2000D8B4A6D5010AD8B4A7D5070AD8B4AED577
:101F3000010AD8B4B0D5030AD8B4BBD5010AD8B4C5
:101F4000CBD57F0AD8B4D9D5010AD8B4FDD5030AB8
:101F5000D8B407D6010AD8B411D6070AD8B41DD60A
:101F6000010AD8B42AD6030AD8B436D6010AD8B49E
:101F700040D60F0AD8B44BD6010AD8B456D6030AB5
:101F8000D8B461D6010AD8B470D6070AD8B47ED6C0
:101F90001C0AD8B48CD6010AD8B4A5D6030AD8B482
:101FA000BED6010AD8B4DED6070AD8B400D7010AD3
:101FB000D8B41AD7194A1A2A1200E8CF02F054D11D
:101FC0000204D8A407D0899289908D90899A899823
:101FD000899689948D948D928B928B908B94899C09
:101FE000899E12000204D8A407D0898289908D901E
:101FF000899A8998899689948D848D928B928B90F9
:102000008B94899C899E12000204D8A408D08980F0
:102010008D80898A898889868984899212008D8237
:102020008B828B808B84898C898E8D941200020424
:10203000D8A408D089888986899289908D90899AB8
:10204000899412008B84898C8D948D928B928B90C5
:10205000899E12000204D8A408D0898A8D808982C2
:10206000898689848990899812008B808B828D84DF
:10207000898C898E8D928B9412000204D8A408D08A
:10208000898A898889828986898489908D901200BD
:102090008B808B848D84898C898E8D928B9212009B
:1020A0000204D8A408D089888986898289808D9085
:1020B000899A899412008B84898C8D848D828B926D
:1020C0008B90899E12000204D8A408D0898A89883E
:1020D0008982898089848D90899612008B808B8477
:1020E0008D848D82898E8B92899C12000204D8A4E3
:1020F00008D08D80898A8988898289808984899697
:1021000012008B828B808B848D848D82898E899C3A
:1021100012000204D8A408D089888986898489920B
:1021200089908D90899A12008B84898C898E8D94E8
:102130008D928B928B9012000204D8A408D08982D1
:1021400089808D80898A89888986898412008D8416
:102150008D828B828B808B84898C898E1200020405
:10216000D8A408D089828980898A898889868984C7
:102170008D9012008D848D828B808B84898C898ECA
:102180008B9212000204D8A408D0898289808D80A5
:10219000898889868984899A12008D848D828B82B0
:1021A0008B84898C898E8B9012000204D8A408D06D
:1021B000898289808D80898A89888996899412008C
:1021C0008D848D828B828B808B84899C899E12006A
:1021D0000204D8A408D089808D80898A8984899254
:1021E0008998899612008D828B828B80898E8D943E
:1021F0008B94899C12000204D8A408D089828D8017
:10220000898A898889868990899412008D848B8235
:102210008B808B84898C8D92899E12000204D8A4B5
:1022200008D0898289808D80898A89848998899655
:1022300012008D848D828B828B80898E8B94899CF9
:1022400012000204D8A408D0898289808D808984F4
:10225000899A8998899612008D848D828B82898EC5
:102260008B908B94899C120001502D0AD8B4BAD659
:102270001D0AD8B4C9D6010AD8B4D9D6030AD8B42D
:10228000E9D6010AD8B4F9D6070AD8B409D7010AA1
:10229000D8B419D7030AD8B429D7010AD8B439D782
:1022A0000F0AD8B449D7010AD8B459D7580AD8B4B4
:1022B00069D7030AD8B479D7010AD8B489D7070AED
:1022C000D8B499D7010AD8B4A9D7030AD8B4B9D7D2
:1022D0001E0AD8A4120074D6E8CF06F03BD00566DB
:1022E00004D0040E086EB00E076E0504D8A404D006
:1022F000090E086E600E076E0550020AD8A404D0BD
:10230000250E086E800E076E0550030AD8A404D06F
:10231000280E086EB10E076E0550040AD8A404D02A
:102320004B0E086E000E076E07C001F008C002F0E9
:10233000B8EC11F0120005C073FF120005C001F0E7
:10234000010EDDEC0FF0120005C001F0020EDDEC15
:102350000FF012000650000AD8B4C1D7010AD8B451
:10236000EAD7020AD8B4EAD7070AD8A41200ECD7F1
:102370008C860BD0670E07D0190E05D0170E03D030
:102380000C0E01D0CF0E756E2CD001C003F002C030
:1023900004F00450040AD8B40DD00D0AD8B40DD0FE
:1023A0002C0AD8B40FD00D0AD8B411D0630AD8B40F
:1023B00013D0E8D70350B00AE5D70350600AD8B469
:1023C000D9D7E0D70350800AD8B4D6D7DBD703508B
:1023D000B10AD8B4D3D7D6D70350000AD8B4D0D7CF
:1023E000D1D7000E766E72947096729C719C729822
:1023F000709A728A7188718E1200066E000E1D6EC0
:102400000650066E000E1E6E0650010E1A6E000E6D
:10241000196E066E000E206E0650066E000E016EDE
:102420000650000EADEC12F0066E000E016E065066
:10243000010EADEC12F0066E000E016E0650020E9B
:10244000ADEC12F0066E000E016E0650040EADECFF
:1024500012F0066E000E016E0650030EADEC12F087
:102460001200010E1924016E000E1A20026E025095
:10247000080A0110D8A404D0016E000E1B6E015092
:10248000020E1924016E000E1A20026E0250080A74
:102490000110D8A404D0016E000E1C6E0150020E73
:1024A0001924016E000E1A20026E0104080ED8B421
:1024B0000218D8A41200016E010E1C6E0150120009
:1024C0000AEC13F0CBEC12F0126E2D0E016E1250CE
:1024D000010EDDEC0FF0126E2D0E016E1250020E89
:1024E000DDEC0FF0FDEC11F0000E195C010E1A5836
:1024F000D8A006D0000E195C080E1A58D8A005D036
:10250000010E1A6E000E196EEFD703EC0CF0ECD72B
:1025100001EE00F011EE00F0EE6AE550E150FCE152
:10252000E250FAE100EE13F00E0EEE6AE806FDE16D
:10253000060EF66E100EF76E000EF86E02EE00F04C
:1025400018EE00F00900F5CFEEFFE550E150FAE19A
:10255000E250F8E1000160EF12F0E8CF03F01FC095
:1025600004F01FC005F005D0026E000E056E02508B
:102570000DD00350000AD8B4F7D7010AD8B406D05A
:10258000030AD8B403D0010AD8A4070A04500524CA
:1025900001241F6E1200000E926E000E946E000E4B
:1025A000966E000E0F010F013B6F95969588959AD8
:1025B000958E959C000E896E000E8B6E000E8C6EB3
:1025C000000E8D6E1200E8CF06F001C002F0036A23
:1025D00017C004F018C005F00650000AD8A4010A7C
:1025E00002500424176E03500520186E1200E8CF25
:1025F00001F01FC002F00150000AD8B409D0010A4E
:10260000D8B406D0030AD8B403D0010AD8A4070A64
:1026100002501200D39ED388D38AD38CD350FC0BA4
:102620000209D36ED298D296D294D3B41200FDD7B9
:102630001BC003F0046A1C500326000E042203C0D2
:1026400001F004C002F01200E8CF01F002D0745093
:1026500012000150020AD8B4FAD7000E1200E8CFD7
:0E26600003F017C001F018C002F00150120084
:020000040020DA
:08000000FFFFFFFFFFFFFFFF00
:020000040030CA
:0E000000FF08193CFFBD81FF0FC00FE00F404D
:00000001FF
