:0400000044EF7EF05B
:10FC8800046A036A026A016A000EF86E00014DEF09
:10FC98007EF0000E926E000E946E000E966E959693
:10FCA8009588959A000E896E000E8B6E000E8C6EEC
:10FCB800000E8D6E076E010E056E0750086E2D0E34
:10FCC800066E085073EC7EF0076E010E056E075045
:10FCD800086E2D0E066E085073EC7EF0FFD754D1D7
:10FCE8000504D8A407D0899289908D90899A89981B
:10FCF800899689948D948D928B928B908B94899C04
:10FD0800899E12000504D8A407D0898289908D9015
:10FD1800899A8998899689948D848D928B928B90F3
:10FD28008B94899C899E12000504D8A408D08980E8
:10FD38008D80898A898889868984899212008D8232
:10FD48008B828B808B84898C898E8D94120005041C
:10FD5800D8A408D089888986899289908D90899AB3
:10FD6800899412008B84898C8D948D928B928B90C0
:10FD7800899E12000504D8A408D0898A8D808982BA
:10FD8800898689848990899812008B808B828D84DA
:10FD9800898C898E8D928B9412000504D8A408D082
:10FDA800898A898889828986898489908D901200B8
:10FDB8008B808B848D84898C898E8D928B92120096
:10FDC8000504D8A408D089888986898289808D907D
:10FDD800899A899412008B84898C8D848D828B9268
:10FDE8008B90899E12000504D8A408D0898A898836
:10FDF8008982898089848D90899612008B808B8472
:10FE08008D848D82898E8B92899C12000504D8A4DA
:10FE180008D08D80898A8988898289808984899691
:10FE280012008B828B808B848D848D82898E899C35
:10FE380012000504D8A408D0898889868984899203
:10FE480089908D90899A12008B84898C898E8D94E3
:10FE58008D928B928B9012000504D8A408D08982C9
:10FE680089808D80898A89888986898412008D8411
:10FE78008D828B828B808B84898C898E12000504FD
:10FE8800D8A408D089828980898A898889868984C2
:10FE98008D9012008D848D828B808B84898C898EC5
:10FEA8008B9212000504D8A408D0898289808D809D
:10FEB800898889868984899A12008D848D828B82AB
:10FEC8008B84898C898E8B9012000504D8A408D065
:10FED800898289808D80898A898889968994120087
:10FEE8008D848D828B828B808B84899C899E120065
:10FEF8000504D8A408D089808D80898A898489924C
:10FF08008998899612008D828B828B80898E8D9438
:10FF18008B94899C12000504D8A408D089828D800E
:10FF2800898A898889868990899412008D848B8230
:10FF38008B808B84898C8D92899E12000504D8A4AD
:10FF480008D0898289808D80898A89848998899650
:10FF580012008D848D828B828B80898E8B94899CF4
:10FF680012000504D8A408D0898289808D808984EC
:10FF7800899A8998899612008D848D828B82898EC0
:10FF88008B908B94899C12000650000AD8B4A8D68E
:10FF98002D0AD8B4B7D61D0AD8B4C6D6010AD8B423
:10FFA800D6D6030AD8B4E6D6010AD8B4F6D6070AD4
:10FFB800D8B406D7010AD8B416D7030AD8B426D7B6
:10FFC800010AD8B436D70F0AD8B446D7010AD8B42C
:10FFD80056D7580AD8B466D7030AD8B476D7010AD0
:10FFE800D8B486D7070AD8B496D7010AD8B4A6D702
:08FFF800030AD8A41200B5D7DA
:020000040020DA
:08000000FFFFFFFFFFFFFFFF00
:020000040030CA
:0E000000FF18193CFFBD81FF0FC00FE00F403D
:00000001FF
