:0400000002EF13F008
:1010000000000800000007030F08000000000000B7
:1010100000000000000000000000000000000000D0
:1010200000000000000000000000000000000000C0
:1010300000000000000000000000000000000000B0
:1010400000000000000000000000000000000000A0
:101800000000000000009DEC12F01EC00FF01EC092
:1018100010F0116A19C00CF01AC00DF000D3096E57
:10182000010E016E0950000E27EC13F0CBD3096EA8
:10183000000E016E0950000E27EC13F0C3D3096EA1
:10184000010E1B6E0950BED31F509CEC13F0F0D15B
:101850001C509CEC13F01E6EACD21EC005F01F5045
:10186000D0EC11F0AFD31EC005F01C50D0EC11F03D
:10187000A0D21DC005F01C50D0EC11F01AD1000E02
:101880001724D96E020E1820D1D1000EA7EC13F048
:10189000CFD1010EA7EC13F0CBD121C01EF092D313
:1018A00020C01EF08FD31FC01EF08CD3000E172453
:1018B000D96E020E1820DA6E1EC0DFFF83D31EC061
:1018C00001F0000E5DEC13F07DD31EC001F0010E9F
:1018D0005DEC13F077D31EC021F074D31EC01FF04F
:1018E00071D31CC01EF065D21EC00FF01FC01EF0C9
:1018F0000FC01FF067D31F501E1664D31E501F1455
:101900000BD01F501E125ED31E501F1005D01F504B
:101910001E1A58D31E501F181E6E1E1E53D31EC0F3
:101920000FF00F04D8A408D0096E010E016E095003
:10193000000E27EC13F046D3096E000E016E09501D
:10194000000E27EC13F03ED31EC00FF00F04D8A4F6
:1019500008D0096E010E016E0950000E27EC13F03D
:1019600031D3096E000E016E0950000E27EC13F002
:1019700029D31EC00EF01E500E245AD11EC00EF0E8
:101980000E50B4D11F501E6208D0096E010E016EB8
:101990000950030E27EC13F007D0096E000E016EFC
:1019A0000950030E27EC13F01F501E5CD8B008D06E
:1019B000096E010E016E0950020E27EC13F007D0DC
:1019C000096E000E016E0950020E27EC13F01E5036
:1019D0001F5CD8B008D0096E010E016E0950010ECF
:1019E00027EC13F0EFD2096E000E016E0950010EC4
:1019F00027EC13F0E7D284EC13F011D0030E71EC56
:101A000013F0096E0904D8A4DDD266D0030E71EC80
:101A100013F0096E0904D8A44CD084EC13F001C073
:101A200019F002C01AF045D0030E71EC13F036D055
:101A3000030E71EC13F00009D8A43BD084EC13F032
:101A4000EED7010E71EC13F0DCD7010E71EC13F040
:101A5000096E0904D8A42DD084EC13F0E0D7020E4F
:101A600071EC13F0CED7020E71EC13F0096E09047D
:101A7000D8A41FD084EC13F0D2D7000E71EC13F071
:101A8000C0D7000E71EC13F0096E0904D8A411D070
:101A900084EC13F0C4D7000E71EC13F00009B3D737
:101AA000000E71EC13F00009D8A403D084EC13F0FD
:101AB000B6D7020E1926000E1A2284D22150010D2B
:101AC0000101000EF324D96E0101010EF420DA6E3B
:101AD00019C0DFFF020E212617C019F018C01AF036
:101AE00071D22150010D0101000EF324D96E0101C4
:101AF000010EF420DA6E19C0DFFF020E212684ECFD
:101B000013F08DD7020E215E2150010D0101000E50
:101B1000F324D96E0101010EF420DA6EDF50096E54
:101B200009500C6E0D6A2150010D0101000EF324C5
:101B3000D96E0101010EF420DA6EDF50096E0950F2
:101B40000C240A6E000E0D200B6E0A5019260B5045
:101B5000B3D72150010D0101000EF324D96E01010C
:101B6000010EF420DA6E1EC0DFFF2AD02150010DD5
:101B70000101000EF324D96E0101010EF420DA6E8A
:101B80001FC0DFFF1DD02150010D0101000EF32405
:101B9000D96E0101010EF420DA6E17C0DFFF020ECC
:101BA000212610D22150010D0101000EF324D96E1F
:101BB0000101010EF420DA6E000EA7EC13F00FD035
:101BC000212A00D22150010D0101000EF324D96E0B
:101BD0000101010EF420DA6E010EA7EC13F0DF6EA6
:101BE000EFD72150010D0101000EF324D96E010140
:101BF000010EF420DA6E20C0DFFFE2D72150010D84
:101C00000101000EF324D96E0101010EF420DA6EF9
:101C10001CC0DFFF212ACDD021062150010D01017A
:101C2000000EF324D96E0101010EF420DA6EDF50AC
:101C30001E6EC8D121062150010D0101000EF324B2
:101C4000D96E0101010EF420DA6EDF501F6EBAD199
:101C5000020E215E2150010D0101000EF324D96E08
:101C60000101010EF420DA6EDF50096E0950176E83
:101C7000186AA8D121062150010D0101000EF3249C
:101C8000D96E0101010EF420DA6EDF50016E000EF4
:101C90005DEC13F097D121062150010D0101000EDA
:101CA000F324D96E0101010EF420DA6EDF50016ECB
:101CB000010E5DEC13F086D11F501026000E11228C
:101CC000000E105C010E1158D8A008D0096E010E4C
:101CD000016E0950040E27EC13F007D0096E000EB8
:101CE000016E0950040E27EC13F01F501E266AD116
:101CF0001C501026000E1122000E105C010E11580F
:101D0000D8A008D0096E010E016E0950040E27EC10
:101D100013F007D0096E000E016E0950040E27EC77
:101D200013F01C501E2645D01EC010F0116AFF0E85
:101D30001026000E11221F50105E000E115AFF0EC9
:101D4000105C000E1158D8B008D0096E010E016E5B
:101D50000950040E27EC13F007D0096E000E016E37
:101D60000950040E27EC13F01F501E5E2BD11EC02D
:101D700010F0116AFF0E1026000E11221C50105E8A
:101D8000000E115AFF0E105C000E1158D8B008D08A
:101D9000096E010E016E0950040E27EC13F007D0F6
:101DA000096E000E016E0950040E27EC13F01C5052
:101DB0001E5E194A1A2A06D1010E1E24106E116ADF
:101DC000000E1122000E105C010E1158D8A008D090
:101DD000096E010E016E0950040E27EC13F007D0B6
:101DE000096E000E016E0950040E27EC13F01E2A36
:101DF000E9D01E040F6E0F28D8A408D0096E010E7A
:101E0000016E0950040E27EC13F007D0096E000E86
:101E1000016E0950040E27EC13F01E06D3D0000EFD
:101E20001924D96E020E1A20DA6EDF50010AD8B4D6
:101E3000F6D4030AD8B4FBD4010AD8B405D5070AEE
:101E4000D8B406D5010AD8B408D5030AD8B40BD53E
:101E5000010AD8B40ED50F0AD8B4F1D4180AD8B4F0
:101E60000ED5010AD8B411D5030AD8B412D5010A87
:101E7000D8B413D5070AD8B413D5010AD8B413D5EA
:101E8000030AD8B413D5010AD8B419D50F0AD8B4A7
:101E90001CD5010AD8B41FD5030AD8B41FD5010A2E
:101EA000D8B41FD5070AD8B41FD53C0AD8B423D557
:101EB000010AD8B423D5030AD8B423D5010AD8B46B
:101EC00023D5070AD8B426D5010AD8B426D5030AE3
:101ED000D8B425D5010AD8B437D50F0AD8B449D516
:101EE000010AD8B44BD5030AD8B44CD5010AD8B4EA
:101EF0000ED51B0AD8B4F0D5010AD8B47CD5030A94
:101F0000D8B47CD5010AD8B481D5070AD8B48CD509
:101F1000010AD8B48DD5030AD8B493D5010AD8B430
:101F200094D50F0AD8B49BD5010AD8B49CD5030A1E
:101F3000D8B4A3D5010AD8B4A4D5070AD8B4ABD570
:101F4000010AD8B4ADD5030AD8B4B8D5010AD8B4BB
:101F5000C8D57F0AD8B4D6D5010AD8B4FAD5030AB1
:101F6000D8B404D6010AD8B40ED6070AD8B41AD603
:101F7000010AD8B427D6030AD8B433D6010AD8B494
:101F80003DD60F0AD8B448D6010AD8B453D6030AAE
:101F9000D8B45ED6010AD8B46DD6070AD8B47BD6B9
:101FA0001C0AD8B489D6010AD8B4A2D6030AD8B478
:101FB000BBD6010AD8B4DBD6070AD8B4FDD6010ACD
:101FC000D8B417D7194A1A2A1200E8CF03F054D10F
:101FD0000304D8A407D0899289908D90899A899812
:101FE000899689948D948D928B928B908B94899CF9
:101FF000899E12000304D8A407D0898289908D900D
:10200000899A8998899689948D848D928B928B90E8
:102010008B94899C899E12000304D8A408D08980DF
:102020008D80898A898889868984899212008D8227
:102030008B828B808B84898C898E8D941200030413
:10204000D8A408D089888986899289908D90899AA8
:10205000899412008B84898C8D948D928B928B90B5
:10206000899E12000304D8A408D0898A8D808982B1
:10207000898689848990899812008B808B828D84CF
:10208000898C898E8D928B9412000304D8A408D079
:10209000898A898889828986898489908D901200AD
:1020A0008B808B848D84898C898E8D928B9212008B
:1020B0000304D8A408D089888986898289808D9074
:1020C000899A899412008B84898C8D848D828B925D
:1020D0008B90899E12000304D8A408D0898A89882D
:1020E0008982898089848D90899612008B808B8467
:1020F0008D848D82898E8B92899C12000304D8A4D2
:1021000008D08D80898A8988898289808984899686
:1021100012008B828B808B848D848D82898E899C2A
:1021200012000304D8A408D08988898689848992FA
:1021300089908D90899A12008B84898C898E8D94D8
:102140008D928B928B9012000304D8A408D08982C0
:1021500089808D80898A89888986898412008D8406
:102160008D828B828B808B84898C898E12000304F4
:10217000D8A408D089828980898A898889868984B7
:102180008D9012008D848D828B808B84898C898EBA
:102190008B9212000304D8A408D0898289808D8094
:1021A000898889868984899A12008D848D828B82A0
:1021B0008B84898C898E8B9012000304D8A408D05C
:1021C000898289808D80898A89888996899412007C
:1021D0008D848D828B828B808B84899C899E12005A
:1021E0000304D8A408D089808D80898A8984899243
:1021F0008998899612008D828B828B80898E8D942E
:102200008B94899C12000304D8A408D089828D8005
:10221000898A898889868990899412008D848B8225
:102220008B808B84898C8D92899E12000304D8A4A4
:1022300008D0898289808D80898A89848998899645
:1022400012008D848D828B828B80898E8B94899CE9
:1022500012000304D8A408D0898289808D808984E3
:10226000899A8998899612008D848D828B82898EB5
:102270008B908B94899C120002502D0AD8B4BAD648
:102280001D0AD8B4C9D6010AD8B4D9D6030AD8B41D
:10229000E9D6010AD8B4F9D6070AD8B409D7010A91
:1022A000D8B419D7030AD8B429D7010AD8B439D772
:1022B0000F0AD8B449D7010AD8B459D7580AD8B4A4
:1022C00069D7030AD8B479D7010AD8B489D7070ADD
:1022D000D8B499D7010AD8B4A9D7030AD8B4B9D7C2
:1022E0001E0AD8A4120074D6E8CF01F00138F00B12
:1022F000016E01380F0B016E20D0300E1200310E2E
:102300001200320E1200330E1200340E1200350E7F
:102310001200360E1200370E1200380E1200390E5F
:102320001200410E1200420E1200430E1200440E23
:102330001200450E1200460E12000150000AD8B4D9
:10234000DCD7010AD8B4DBD7030AD8B4DAD7010A3C
:10235000D8B4D9D7070AD8B4D8D7010AD8B4D7D7B0
:10236000030AD8B4D6D7010AD8B4D5D70F0AD8B43F
:10237000D4D7010AD8B4D3D7030AD8B4D2D7010A24
:10238000D8B4D1D7070AD8B4D0D7010AD8B4CFD798
:10239000030AD8B4CED7010AD8B4CDD7000E1200A4
:1023A000E8CF06F03FD0056604D0040E086EB00EEC
:1023B000076E0504D8A404D0090E086E600E076EDF
:1023C0000550020AD8A404D0250E086E800E076EB0
:1023D0000550030AD8A404D0280E086EB10E076E6B
:1023E0000550040AD8A404D04B0E086E000E076EE8
:1023F00007C001F008C002F020EC12F0120005C086
:1024000073FF1200055074EC11F0026E010EE5EC42
:102410000FF01200055074EC11F0026E020EE5ECA4
:102420000FF012000650000AD8B4BDD7010AD8B484
:10243000E6D7020AD8B4E6D7070AD8A41200EAD72A
:102440008C860BD0670E07D0190E05D0170E03D05F
:102450000C0E01D0CF0E756E2CD001C003F002C05F
:1024600004F00450040AD8B40DD00D0AD8B40DD02D
:102470002C0AD8B40FD00D0AD8B411D0630AD8B43E
:1024800013D0E8D70350B00AE5D70350600AD8B498
:10249000D9D7E0D70350800AD8B4D6D7DBD70350BA
:1024A000B10AD8B4D3D7D6D70350000AD8B4D0D7FE
:1024B000D1D7000E766E72947096729C719C729851
:1024C000709A728A7188718E1200066E000E1B6EF1
:1024D0000650066E000E1E6E0650066E000E1F6E33
:1024E0000650000E1A6E000E196E066E000E216E5A
:1024F0000650066E000E016E0650000E27EC13F01B
:10250000066E000E016E0650010E27EC13F0066EEB
:10251000000E016E0650020E27EC13F0066E000E40
:10252000016E0650040E27EC13F0066E000E016ECD
:102530000650030E27EC13F01200010E1924016E51
:10254000000E1A20026E0250080A0110D8A404D00E
:10255000016E000E1C6E0150020E1924016E000E59
:102560001A20026E0250080A0110D8A404D0016E8D
:10257000000E1D6E0150020E1924016E000E1A206D
:10258000026E0104080ED8B40218D8A404D0016E5B
:10259000010E1D6E015019281C6E1950020F1D6E80
:1025A000120090EC13F045EC13F0126E2D0E026E3B
:1025B0001250010EE5EC0FF0126E2D0E026E12504D
:1025C000020EE5EC0FF065EC12F00DD0000E195C78
:1025D000080E1A58D8A005D0000E1A6E000E196EFB
:1025E00002D003EC0CF01B50D8B4F0D71B04D8A4D5
:1025F00000EF00F0126E300E026E1250020EE5EC8B
:102600000FF0FFD701EE00F011EE00F0EE6AE5509A
:10261000E150FCE1E250FAE100EE13F00F0EEE6A39
:10262000E806FDE1060EF66E100EF76E000EF86E6F
:1026300002EE00F018EE00F00900F5CFEEFFE550D5
:10264000E150FAE1E250F8E10001D1EF12F0E8CFF9
:1026500003F020C004F020C005F005D0026E000E8B
:10266000056E02500DD00350000AD8B4F7D7010A06
:10267000D8B406D0030AD8B403D0010AD8A4070AF4
:10268000045005240124206E1200000E926E000EEC
:10269000946E000E966E000E0F010F013B6F959623
:1026A0009588959A958E959C000E896E000E8B6E7E
:1026B000000E8C6E000E8D6E1200E8CF06F001C089
:1026C00002F0036A17C004F018C005F00650000AB3
:1026D000D8A4010A02500424176E03500520186E76
:1026E0001200E8CF01F020C002F00150000AD8B477
:1026F00009D0010AD8B406D0030AD8B403D0010A1D
:10270000D8A4070A025012001CC003F0046A1D502E
:102710000326000E042203C001F004C002F01200E0
:10272000D39ED388D38AD38CD350FC0B0209D36EAB
:10273000D298D296D2941200E8CF01F002D0745011
:1027400012000150020AD8B4FAD7000E1200E8CFE6
:0E27500003F017C001F018C002F00150120093
:020000040020DA
:08000000FFFFFFFFFFFFFFFF00
:020000040030CA
:0E000000FF08193CFFBD81FF0FC00FE00F404D
:00000001FF
