:04000000EFEF7DF0B1
:10FBDE00096A086A076A066A000EF86E000110EFDD
:10FBEE007EF0000E926E000E946E000E966E000E5B
:10FBFE000F010F013B6F95969588959A958E959C62
:10FC0E00000E896E000E8B6E000E8C6E000E8D6EC9
:10FC1E001200F8EC7DF0040E026EB00E016E2CECAC
:10FC2E007EF0056E2D0E016E0550010E71EC7EF00C
:10FC3E00056E2D0E016E0550020E71EC7EF0A4BA0B
:10FC4E00A4A8FDD7410E736EFAD78C860BD0670E23
:10FC5E0007D0190E05D0170E03D00C0E01D0CF0E03
:10FC6E00756E2CD001C003F002C004F00450040ADB
:10FC7E00D8B40DD00D0AD8B40DD02C0AD8B40FD0EC
:10FC8E000D0AD8B411D0630AD8B413D0E8D70350F4
:10FC9E00B00AE5D70350600AD8B4D9D7E0D70350DD
:10FCAE00800AD8B4D6D7DBD70350B10AD8B4D3D78D
:10FCBE00D6D70350000AD8B4D0D7D1D7000E766E5F
:10FCCE0072947096729C719C7298708A728A718806
:10FCDE00718E1200E8CF02F054D10204D8A407D0DE
:10FCEE00899289908D90899A8998899689948D9414
:10FCFE008D928B928B908B94899C899E120002041C
:10FD0E00D8A407D0898289908D90899A89988996EE
:10FD1E0089948D848D928B928B908B94899C899EE5
:10FD2E0012000204D8A408D089808D80898A89881F
:10FD3E0089868984899212008D828B828B808B8436
:10FD4E00898C898E8D9412000204D8A408D08988DB
:10FD5E008986899289908D90899A899412008B84D4
:10FD6E00898C8D948D928B928B90899E12000204B9
:10FD7E00D8A408D0898A8D808982898689848990C1
:10FD8E00899812008B808B828D84898C898E8D92BE
:10FD9E008B9412000204D8A408D0898A898889829B
:10FDAE008986898489908D9012008B808B848D84B6
:10FDBE00898C898E8D928B9212000204D8A408D061
:10FDCE0089888986898289808D90899A8994120082
:10FDDE008B84898C8D848D828B928B90899E120060
:10FDEE000204D8A408D0898A898889828980898466
:10FDFE008D90899612008B808B848D848D82898E56
:10FE0E008B92899C12000204D8A408D08D80898A16
:10FE1E008988898289808984899612008B828B8059
:10FE2E008B848D848D82898E899C12000204D8A4C5
:10FE3E0008D0898889868984899289908D90899A3B
:10FE4E0012008B84898C898E8D948D928B928B90DF
:10FE5E0012000204D8A408D0898289808D80898AF4
:10FE6E0089888986898412008D848D828B828B800D
:10FE7E008B84898C898E12000204D8A408D08982C2
:10FE8E008980898A8988898689848D9012008D84DB
:10FE9E008D828B808B84898C898E8B9212000204CA
:10FEAE00D8A408D0898289808D80898889868984A2
:10FEBE00899A12008D848D828B828B84898C898E97
:10FECE008B9012000204D8A408D0898289808D807C
:10FEDE00898A89888996899412008D848D828B8275
:10FEEE008B808B84899C899E12000204D8A408D032
:10FEFE0089808D80898A8984899289988996120051
:10FF0E008D828B828B80898E8D948B94899C12002E
:10FF1E000204D8A408D089828D80898A898889862E
:10FF2E008990899412008D848B828B808B84898C2E
:10FF3E008D92899E12000204D8A408D089828980ED
:10FF4E008D80898A89848998899612008D848D8204
:10FF5E008B828B80898E8B94899C12000204D8A48C
:10FF6E0008D0898289808D808984899A899889961A
:10FF7E0012008D848D828B82898E8B908B94899CBE
:10FF8E00120001502D0AD8B4BAD61D0AD8B4C9D65B
:10FF9E00010AD8B4D9D6030AD8B4E9D6010AD8B41E
:10FFAE00F9D6070AD8B409D7010AD8B419D7030A63
:10FFBE00D8B429D7010AD8B439D70F0AD8B449D73B
:10FFCE00010AD8B459D7580AD8B469D7030AD8B495
:10FFDE0079D7010AD8B489D7070AD8B499D7010AB4
:10FFEE00D8B4A9D7030AD8B4B9D71E0AD8A4120018
:02FFFE0074D6B7
:020000040020DA
:08000000FFFFFFFFFFFFFFFF00
:020000040030CA
:0E000000FF18193CFFBD81FF0FC00FE00F403D
:00000001FF
