:0400000024EF10F0E9
:10100000000008000000FEEC0EF01DC00EF01DC038
:101010000FF0106A18C00CF019C00DF056D30A6E0C
:10102000010E016E0A50000EE1EC0DF038EF0CF0ED
:101030000A6E000E016E0A50000EE1EC0DF038EF62
:101040000CF00A6E010E1A6E0A5038EF0CF01E50AA
:10105000E1EC10F03DD21B50E1EC10F01D6EFFD220
:101060001DC005F01E50AAEC0EF038EF0CF01DC0AC
:1010700005F01B50AAEC0EF0F2D21CC005F01B507C
:10108000AAEC0EF01ED1000E1624D96E020E172007
:101090001DD2000ED4EC10F01BD2010ED4EC10F0D7
:1010A00017D220C01DF0E4D31FC01DF0E1D31EC035
:1010B0001DF0DED3000E1624D96E020E1720DA6E54
:1010C0001DC0DFFFD5D31DC001F0000EFBEC0FF0FB
:1010D000CFD31DC001F0010EFBEC0FF0C9D31DC032
:1010E00020F0C6D31DC01EF0C3D31BC01DF0B7D265
:1010F0001DC00EF01EC01DF00EC01EF0B9D31E5054
:101100001D16B6D31D501E140BD01E501D12B0D389
:101110001D501E1005D01E501D1AAAD31D501E189A
:101120001D6E1D1EA5D31DC00EF00E360E6A0E36A6
:101130000E04D8A408D00A6E010E016E0A50000EEB
:10114000E1EC0DF007D00A6E000E016E0A50000EA1
:10115000E1EC0DF0D8901D368BD31DC00EF00E3291
:101160000E6A0E320E360E6A0E360E04D8A408D061
:101170000A6E010E016E0A50000EE1EC0DF007D070
:101180000A6E000E016E0A50000EE1EC0DF0D890D0
:101190001D326ED31DC00BF00B360B6A0B36D89088
:1011A0001D361D500B2494D11DC00BF00B320B6A61
:1011B0000B32D8901D320B50E9D11E501D6208D061
:1011C0000A6E010E016E0A50030EE1EC0DF007D01D
:1011D0000A6E000E016E0A50030EE1EC0DF01E5077
:1011E0001D5CD8B008D00A6E010E016E0A50020EC6
:1011F000E1EC0DF007D00A6E000E016E0A50020EEF
:10120000E1EC0DF01D501E5CD8B008D00A6E010E46
:10121000016E0A50010EE1EC0DF02AD30A6E000EA9
:10122000016E0A50010EE1EC0DF022D3B7EC10F084
:1012300021D0030EC8EC0FF00A6E0A0424D016C0A9
:1012400018F017C019F0D1D0030EC8EC0FF00A6ED9
:101250000A04D8A4CAD0B7EC10F00CD0030EC8EC26
:101260000FF045D0030EC8EC0FF00009D8A4BDD094
:10127000B7EC10F001C018F002C019F0B6D0010EA2
:10128000C8EC0FF0D9D7D8A4B0D0D9D7010EC8EC8C
:101290000FF00A6E0A04D8A4A8D0B7EC10F0EAD771
:1012A000020EC8EC0FF0C8D7020EC8EC0FF00A6EA1
:1012B0000A04D8A406D0B7EC10F001C018F002C0A0
:1012C00019F0020E1826000E1922D2D2000EC8EC18
:1012D0000FF0B2D7000EC8EC0FF00A6E0A04D8A4C3
:1012E00084D0B7EC10F0C6D7000EC8EC0FF00009A0
:1012F000CAD7000EC8EC0FF00009D8A476D0B7EC1E
:1013000010F0B8D7184A192A18C00CF019C00DF0FF
:101310000D500C6E0D6A2050010D0101000EF324DA
:10132000D96E0101010EF420DA6E0CC0DFFF202A15
:101330002050010D0101000EF324D96E0101010EB0
:10134000F420DA6E18C0DFFF202A79D7030E1826A2
:10135000000E192218C00CF019C00DF00D500C6EC3
:101360000D6A2050010D0101000EF324D96E010118
:10137000010EF420DA6E0CC0DFFF202A2050010D90
:101380000101000EF324D96E0101010EF420DA6E82
:1013900018C0DFFF202AB7EC10F06CD720062050D1
:1013A000010D0101000EF324D96E0101010EF4209C
:1013B000DA6EDF500A6E0A50186E196A2006205045
:1013C000010D0101000EF324D96E0101010EF4207C
:1013D000DA6EDF500A6E0A500C6E0D6A0C500D6EFC
:1013E0000C6A0C5018260D5019221806D8A01906A0
:1013F0003FD22050010D0101000EF324D96E0101EE
:10140000010EF420DA6E1DC0DFFF2AD02050010D3E
:101410000101000EF324D96E0101010EF420DA6EF1
:101420001EC0DFFF1DD02050010D0101000EF3246E
:10143000D96E0101010EF420DA6E16C0DFFF020E34
:10144000202616D22050010D0101000EF324D96E82
:101450000101010EF420DA6E000ED4EC10F00FD072
:10146000202A06D22050010D0101000EF324D96E6E
:101470000101010EF420DA6E010ED4EC10F0DF6EE3
:10148000EFD72050010D0101000EF324D96E0101A8
:10149000010EF420DA6E1FC0DFFFE2D72050010DED
:1014A0000101000EF324D96E0101010EF420DA6E61
:1014B0001BC0DFFF202AD3D020062050010D0101E0
:1014C000000EF324D96E0101010EF420DA6EDF5014
:1014D0001D6ECED120062050010D0101000EF32417
:1014E000D96E0101010EF420DA6EDF501E6EC0D1FC
:1014F000020E205E2050010D0101000EF324D96E72
:101500000101010EF420DA6EDF500A6E0A50166EE9
:10151000176AAED120062050010D0101000EF32400
:10152000D96E0101010EF420DA6EDF50016E000E5B
:10153000FBEC0FF09DD120062050010D0101000EA3
:10154000F324D96E0101010EF420DA6EDF50016E32
:10155000010EFBEC0FF08CD11E500F26000E102256
:10156000000E0F5C010E1058D8A008D00A6E010EB4
:10157000016E0A50040EE1EC0DF007D00A6E000E69
:10158000016E0A50040EE1EC0DF01E501D2670D1C4
:101590001B500F26000E1022000E0F5C010E10587B
:1015A000D8A008D00A6E010E016E0A50040EE1ECBC
:1015B0000DF007D00A6E000E016E0A50040EE1EC29
:1015C0000DF01B501D264BD01DC00FF0106A0F50A0
:1015D000106E0F6AFF0E0F26000E10221E500F5EB7
:1015E000000E105AFF0E0F5C000E1058D8B008D035
:1015F0000A6E010E016E0A50040EE1EC0DF007D0E8
:101600000A6E000E016E0A50040EE1EC0DF01E5041
:101610001D5E2ED11DC00FF0106A0F50106E0F6AA4
:10162000FF0E0F26000E10221B500F5E000E105AE8
:10163000FF0E0F5C000E1058D8B008D00A6E010ED5
:10164000016E0A50040EE1EC0DF007D00A6E000E98
:10165000016E0A50040EE1EC0DF01B501D5E184A9D
:10166000192A06D1010E1D240F6E106A000E1022D9
:10167000000E0F5C010E1058D8A008D00A6E010EA3
:10168000016E0A50040EE1EC0DF007D00A6E000E58
:10169000016E0A50040EE1EC0DF01D2AE9D01D0484
:1016A0000E6E0E28D8A408D00A6E010E016E0A50E4
:1016B000040EE1EC0DF007D00A6E000E016E0A5028
:1016C000040EE1EC0DF01D06D3D0000E1824D96EE7
:1016D000020E1920DA6EDF50010AD8B4A0D4030A32
:1016E000D8B4A6D4010AD8B4B2D4070AD8B4B3D4B3
:1016F000010AD8B4B5D4030AD8B4B9D4010AD8B40D
:10170000BCD40F0AD8B49DD4180AD8B4BCD4010AEA
:10171000D8B4BFD4030AD8B4C0D4010AD8B4C1D451
:10172000070AD8B4C1D4010AD8B4C1D4030AD8B4C2
:10173000C1D4010AD8B4C7D40F0AD8B4CAD4010A94
:10174000D8B4CDD4030AD8B4CDD4010AD8B4CDD4FA
:10175000070AD8B4CDD43C0AD8B4D1D4010AD8B43D
:10176000D1D4030AD8B4D1D4010AD8B4D1D4070A49
:10177000D8B4D4D4010AD8B4D4D4030AD8B4D3D4B6
:10178000010AD8B4EAD40F0AD8B404D5010AD8B4EF
:101790000BD5030AD8B411D5010AD8B4BCD41B0A9E
:1017A000D8B44DD5010AD8B441D5030AD8B441D52F
:1017B000010AD8B449D5070AD8B450D5010AD8B41B
:1017C00051D5030AD8B45BD5010AD8B45FD50F0A46
:1017D000D8B466D5010AD8B467D5030AD8B476D58B
:1017E000010AD8B477D5070AD8B47ED5010AD8B48F
:1017F00080D5030AD8B486D5010AD8B4A7D57F0A04
:10180000D8B4CCD5010AD8B4F4D5030AD8B4FED5DF
:10181000010AD8B408D6070AD8B414D6010AD8B435
:1018200021D6030AD8B42DD6010AD8B437D60F0A68
:10183000D8B442D6010AD8B44DD6030AD8B458D683
:10184000010AD8B467D6070AD8B475D61C0AD8B42A
:1018500083D6010AD8B49CD6030AD8B4B5D6010AF7
:10186000D8B4D8D6070AD8B4FDD6010AD8B417D749
:10187000184A192A1200E8CF02F056D10204D8A45F
:1018800008D0899289908D90899A899889968994AF
:1018900012008D948D928B928B908B94899C899E53
:1018A00012000204D8A408D0898289908D90899A68
:1018B00089988996899412008D848D928B928B9051
:1018C0008B94899C899E12000204D8A408D0898038
:1018D0008D80898A898889868984899212008D827F
:1018E0008B828B808B84898C898E8D94120002046C
:1018F000D8A408D089888986899289908D90899A00
:10190000899412008B84898C8D948D928B928B900C
:10191000899E12000204D8A408D0898A8D80898209
:10192000898689848990899812008B808B828D8426
:10193000898C898E8D928B9412000204D8A408D0D1
:10194000898A898889828986898489908D90120004
:101950008B808B848D84898C898E8D928B921200E2
:101960000204D8A408D089888986898289808D90CC
:10197000899A899412008B84898C8D848D828B92B4
:101980008B90899E12000204D8A408D0898A898885
:101990008982898089848D90899612008B808B84BE
:1019A0008D848D82898E8B92899C12000204D8A42A
:1019B00008D08D80898A89888982898089848996DE
:1019C00012008B828B808B848D848D82898E899C82
:1019D00012000204D8A408D0898889868984899253
:1019E00089908D90899A12008B84898C898E8D9430
:1019F0008D928B928B9012000204D8A408D0898219
:101A000089808D80898A89888986898412008D845D
:101A10008D828B828B808B84898C898E120002044C
:101A2000D8A408D089828980898A8988898689840E
:101A30008D9012008D848D828B808B84898C898E11
:101A40008B9212000204D8A408D0898289808D80EC
:101A5000898889868984899A12008D848D828B82F7
:101A60008B84898C898E8B9012000204D8A408D0B4
:101A7000898289808D80898A8988899689941200D3
:101A80008D848D828B828B808B84899C899E1200B1
:101A90000204D8A408D089808D80898A898489929B
:101AA0008998899612008D828B828B80898E8D9485
:101AB0008B94899C12000204D8A408D089828D805E
:101AC000898A898889868990899412008D848B827D
:101AD0008B808B84898C8D92899E12000204D8A4FD
:101AE00008D0898289808D80898A8984899889969D
:101AF00012008D848D828B828B80898E8B94899C41
:101B000012000204D8A408D0898289808D8089843B
:101B1000899A8998899612008D848D828B82898E0C
:101B20008B908B94899C120001502D0AD8B4B9D6A1
:101B30001D0AD8B4C9D6010AD8B4D9D6030AD8B474
:101B4000E9D6010AD8B4F9D6070AD8B409D7010AE8
:101B5000D8B419D7030AD8B429D7010AD8B439D7C9
:101B60000F0AD8B449D7010AD8B459D7780AD8B4DB
:101B700069D7030AD8B479D7010AD8B489D7070A34
:101B8000D8B499D7010AD8B4A9D7030AD8B4B9D719
:101B90001E0AD8B473D6390AD8B454D7030AD8B4B5
:101BA00064D7010AD8B474D7070AD8B484D7010A15
:101BB000D8B494D7030AD8B4A4D71E0AD8A4120064
:101BC0005DD6E8CF03F01FC005F01FC004F051D070
:101BD000D8900532D8900536026E000E046E025081
:101BE00058D0D8900532D8900532D8900536D89084
:101BF0000536043A04360436C00E0416043A04329C
:101C00000432030E1FD0D8900532D8900532D890F8
:101C10000532D8900536D8900536D8900536043A66
:101C20000436E00E0416043A0432070E0BD0053ACF
:101C30000F0E0516053AF00E0516043AF00E0416BE
:101C4000043A0F0E041625D0053A0532070E051684
:101C5000053A0536E00E0516D8900436D8900436BD
:101C6000D8900436D8900432D8900432D8900432F8
:101C700010D00350000AD8B4ABD7010AD8B4B1D7FA
:101C8000030AD8B4C0D7010AD8B4D1D7070AD8B448
:101C9000DBD70550042401241F6E1200E8CF01F0A9
:101CA0000138F00B016E01380F0B016E20D0300EA1
:101CB0001200310E1200320E1200330E1200340EDA
:101CC0001200350E1200360E1200370E1200380EBA
:101CD0001200390E1200410E1200420E1200430E85
:101CE0001200440E1200450E1200460E1200015062
:101CF000000AD8B4DCD7010AD8B4DBD7030AD8B4B9
:101D0000DAD7010AD8B4D9D7070AD8B4D8D7010A84
:101D1000D8B4D7D7030AD8B4D6D7010AD8B4D5D700
:101D20000F0AD8B4D4D7010AD8B4D3D7030AD8B489
:101D3000D2D7010AD8B4D1D7070AD8B4D0D7010A6C
:101D4000D8B4CFD7030AD8B4CED7010AD8B4CDD7E8
:101D5000000E1200E8CF06F043D0056604D0040E52
:101D6000086EB00E076E0504D8A404D0090E086EE4
:101D7000600E076E0550020AD8A404D0250E086E26
:101D8000800E076E0550030AD8A404D0280E086EF2
:101D9000B10E076E0550040AD8A404D04B0E086E8D
:101DA000000E076E07C001F008C002F049EC0FF00A
:101DB000120005C073FF120005504EEC0EF0096EC4
:101DC00009C001F0010E3BEC0CF0120005504EEC86
:101DD0000EF0096E09C001F0020E3BEC0CF012008F
:101DE0000650000AD8B4B9D7010AD8B4E2D7020A1B
:101DF000D8B4E2D7070AD8A41200E8D7010E1824F5
:101E0000016E000E1920026E0250080A0110D8A4BB
:101E100004D0016E000E1B6E0150020E1824016EDC
:101E2000000E1920026E0250080A0110D8A404D036
:101E3000016E000E1C6E0150020E1824016E000E81
:101E40001920026E0104080ED8B40218D8A404D0D8
:101E5000016E010E1C6E0150010E1824016E000E61
:101E60001920026E000E0124D96E020E0220DA6ED5
:101E7000DF501B6E020E1824016E000E1920026E38
:101E8000000E0124D96E020E0220DA6EDF501C6EA5
:101E900012008C860BD0670E07D0190E05D0170ED6
:101EA00003D00C0E01D0CF0E756E2CD001C003F004
:101EB00002C004F00450040AD8B40DD00D0AD8B4FE
:101EC0000DD02C0AD8B40FD00D0AD8B411D0630AA3
:101ED000D8B413D0E8D70350B00AE5D70350600A4E
:101EE000D8B4D9D7E0D70350800AD8B4D6D7DBD737
:101EF0000350B10AD8B4D3D7D6D70350000AD8B408
:101F0000D0D7D1D7000E766E72947096729C719C69
:101F10007298709A728A7188718E1200C6EC10F0F5
:101F20009FEC10F0116E2D0E016E1150010E3BEC66
:101F30000CF0116E2D0E016E1150020E3BEC0CF0E8
:101F400086EC10F013D0000E185C080E1958D8A0BB
:101F500005D0000E196E000E186E08D0030E086E24
:101F6000E80E076E49EC10F003EC08F01A50D8B4F4
:101F7000EAD7116E2D0E016E1150010E3BEC0CF0E4
:101F8000116E2D0E016E1150020E3BEC0CF0FFD7BE
:101F9000E8CF01F01FC002F01CD00232026A023208
:101FA00005D0023A02360236C00E0AD00236026A64
:101FB00002361FD0023A0236E00E02D0023AF00E8C
:101FC0000216F4D7D8900236D8900236D89002364E
:101FD000EDD70150000AD8B4E0D7010AD8B4E1D750
:101FE000030AD8B4E7D7010AD8B4E8D7070AD8B4A7
:101FF000E9D702501200E8CF04F001C002F0036AF2
:1020000016C005F017C006F011D00550066E056A1F
:102010000650056E066A0250036E026A0ED0065024
:10202000056E066A0550066E056A07D00450000A60
:10203000D8B4EBD7010AD8B4F2D702500524166EF3
:1020400003500620176E120001EE00F011EE00F0B2
:10205000EE6AE550E150FCE1E250FAE100EE12F0E8
:102060000F0EEE6AE806FDE1D80EF66E210EF76E51
:10207000000EF86E02EE00F018EE00F00900F5CF49
:10208000EEFFE550E150FAE1E250F8E100018EEF99
:102090000FF007C001F008C002F0000E046E0A0E37
:1020A000036E69EC10F001C012F002C013F0146A64
:1020B000156A08D0FF0E1226FF0E1322FF0E1422FF
:1020C000FF0E15221550121013101410D8B4120060
:1020D000F1D701500302F3CF05F0F4CF06F0015021
:1020E0000402F3CFF4FFF36AF3500526F4500622FE
:1020F00002500302F3CFF4FFF36AF3500526F450C5
:10210000062205C001F006C002F01200016E000EAA
:102110001A6E0150016E000E1D6E0150016E000E10
:102120001E6E0150000E196E000E186E016E000E2C
:10213000206E0150016E000E1F6E01501200000E45
:10214000926E000E946E000E966E000E0F010F013F
:102150003B6F95969588959A958E959C000E896E05
:10216000000E8B6E000E8C6E000E8D6E12001BC06A
:1021700003F0046A0350046E036A1C500326000E29
:10218000042203C001F004C002F01200D39ED388E1
:10219000D38AD38CD350FC0B0209D36ED298D2963B
:1021A000D294D3B41200FDD7E8CF03F016C001F0EB
:1021B00017C002F0036603D00250016E026A01509C
:1021C0001200E8CF01F002D0745012000150020A50
:1021D000D8B4FAD7000E1200070300543F000A31AA
:0621E000000306044000AC
:020000040020DA
:08000000FFFFFFFFFFFFFFFF00
:020000040030CA
:0E000000FF08193CFFBD81FF0FC00FE00F404D
:00000001FF
